:100000000C945E000C9486000C9486000C94860080
:100010000C9486000C9486000C9486000C94860048
:100020000C9486000C9486000C9486000C94860038
:100030000C9486000C9486000C9486000C94860028
:100040000C9401020C9486000C9486000C9486009B
:100050000C9486000C9486000C9486000C94860008
:100060000C9486000C948600000000080002010039
:100070000003040700000000000000000000000072
:10008000250028002B0000000000240027002A0083
:10009000040404040404040402020202020203032E
:1000A0000303030301020408102040800102040836
:1000B000102001020408102022062E0611241FBE63
:1000C000CFEFD8E0DEBFCDBF22E0ACEAB2E001C0A6
:1000D0001D92A63FB207E1F712E0A0E0B1E0E6E42E
:1000E000F1E102C005900D92AC3AB107D9F710E0EA
:1000F000CDE5D0E004C02197FE010E949E06CC35DC
:10010000D107C9F70E9494020C9496080C94000041
:1001100090E0FC01EC55FF4F249180579F4FFC016C
:100120008491882399F090E0880F991FFC01EA5789
:10013000FF4FA591B491FC01E458FF4F8591949134
:100140008FB7F894EC91E22BEC938FBF089580E485
:1001500080937C0080917A00806480937A00809103
:100160007A0086FDFCCF8091780090917900089507
:10017000FC01248135816217730720F4808191810D
:10018000009729F41092B10281EB92E00895860F56
:10019000971F089590E0FC01E859FF4F2491FC015E
:1001A000EC55FF4F3491FC01E057FF4FE491EE23F3
:1001B000C9F0222339F0233001F1A8F4213019F1DC
:1001C000223029F1F0E0EE0FFF1FE458FF4FA59118
:1001D000B4918FB7F894EC91611126C030953E230D
:1001E0003C938FBF08952730A9F02830C9F0243000
:1001F00049F7809180008F7D03C0809180008F77C8
:1002000080938000DFCF84B58F7784BDDBCF84B54A
:100210008F7DFBCF8091B0008F778093B000D2CFDD
:100220008091B0008F7DF9CF3E2BDACF3FB7F894A5
:100230008091AD029091AE02A091AF02B091B00258
:1002400026B5A89B05C02F3F19F00196A11DB11D31
:100250003FBFBA2FA92F982F8827BC01CD01620F6D
:10026000711D811D911D42E0660F771F881F991F28
:100270004A95D1F708958F929F92AF92BF92CF92F5
:10028000DF92EF92FF920E9416014B015C0188EC15
:10029000C82ED12CE12CF12C0E9416016819790985
:1002A0008A099B09683E734081059105A8F321E006
:1002B000C21AD108E108F10888EE880E83E0981E82
:1002C000A11CB11CC114D104E104F10429F7FF9071
:1002D000EF90DF90CF90BF90AF909F908F90089558
:1002E00061E08FE00E94CA0060E08FE00C94CA00D9
:1002F000CF93C82F682F617080E10E94CA006C2FD5
:10030000627081E10E94CA006C2F647082E10E94D9
:10031000CA006C2F687083E1CF910C94CA000F93D0
:100320001F93CF93DF93EC01682F617080E00E94F0
:10033000CA006C2F627081E00E94CA006C2F64704A
:1003400082E00E94CA006C2F687083E00E94CA009D
:100350006C2F607184E00E94CA006C2F607285E08F
:100360000E94CA006C2F607486E00E94CA006C2F45
:10037000607887E00E94CA008E01D7FF02C001505A
:100380001F4F612F617088E00E94CA00612F627068
:1003900089E0DF91CF911F910F910C94CA00CF9308
:1003A000DF9390E080E00E948F01D0E0C0E0CE01BA
:1003B0000E9478010E9470012196CA30D105B9F7D8
:1003C000DF91CF910895CF93DF93EC01EEECF2E053
:1003D0001192119282E0E23EF807D1F70E94CF011C
:1003E000D093E302C093E2028FEF9FEF90939902C4
:1003F000809398021092CD021092CC02DF91CF919F
:1004000008951F920F920FB60F9211242F933F93CE
:100410008F939F93AF93BF938091B2029091B30259
:10042000A091B402B091B5023091AC0223E0230F49
:100430002D3758F50196A11DB11D2093AC02809374
:10044000B2029093B302A093B402B093B50280912C
:10045000AD029091AE02A091AF02B091B0020196B0
:10046000A11DB11D8093AD029093AE02A093AF0287
:10047000B093B002BF91AF919F918F913F912F9117
:100480000F900FBE0F901F90189526E8230F02962D
:10049000A11DB11DD2CFEF92FF920F931F93CF9367
:1004A000DF93EC017B01198218821B821A821D8264
:1004B0001C82FB0101900020E9F731978F01061B98
:1004C000170BB8016F5F7F4F90E080E00E94C90773
:1004D0000097B9F0998388831B830A832C813D811F
:1004E000232B11F4FC0110821D830C83B70188813A
:1004F0009981DF91CF911F910F91FF90EF900C9414
:100500008F0888819981009711F00E944007198215
:1005100018821D821C821B821A82DF91CF911F914B
:100520000F91FF90EF900895789484B5826084BD18
:1005300084B5816084BD85B5826085BD85B58160E7
:1005400085BD80916E00816080936E001092810065
:100550008091810082608093810080918100816020
:1005600080938100809180008160809380008091E1
:10057000B10084608093B1008091B000816080936D
:10058000B00080917A00846080937A0080917A0034
:10059000826080937A0080917A00816080937A00F3
:1005A00080917A00806880937A001092C100C0E048
:1005B0008C2F0E948800CF5FCA30D1F78FE00E9455
:1005C000880080E10E94880081E10E94880082E129
:1005D0000E94880083E10E9488003AE0E32EF12C1B
:1005E000C0E0D2E0CE010E948F0110E000E0C8011F
:1005F0000E9478010E9470010F5F1F4F0A301105A1
:10060000B1F70E943B01D7FD2196D595C79521E012
:10061000E21AF10839F70E94CF010AE010E0C09118
:10062000CC02D091CD02CE010E9478018FEF93E0F1
:100630000E948F010E9470010E943B01CE010E9426
:10064000780190E080E00E948F010E947001219665
:10065000D093CD02C093CC020150110901F790E074
:1006600080E00E948F011092CD021092CC0212EE17
:10067000812E12E0912E0AE0E02EF12C80E0282E4F
:1006800080E0382EC1E000E012E0CC24CA94DC2CDB
:100690008FB7F8944090B2025090B3026090B402C9
:1006A0007090B5028FBF4092EE025092EF026092BE
:1006B000F0027092F1020E94A700892B09F4ADC2EA
:1006C0008091ED0281114FC10E94A70020919A02F2
:1006D000893532E0930709F4A3C084F58F3F51E0D8
:1006E000950709F4C2C0ACF4863E914009F4CDC030
:1006F000C093ED02D0919A0280919102882309F46F
:10070000D4C0D13309F0DBC010929102C093B8027B
:10071000D6C08A3132E0930709F497C088339240FB
:1007200039F7263329F380919302882309F48AC08C
:100730008CE891E00E94E30186E331C08A3D52E0FB
:10074000950709F446C0BCF48F37F2E09F0709F41F
:1007500055C0893A924061F6233351F28091930259
:10076000882309F448C084E092E00E94E30123E377
:1007700020939A0228C0823143E09407B1F0843577
:10078000934009F0B5CF203309F4B2CF80919302A2
:10079000882341F08CE792E00E94E30180E380939C
:1007A0009A0211C088E692E0F7CF213309F4A0CF76
:1007B00080919302882351F084E592E00E94E30146
:1007C000E1E3E0939A02C093E80292CF80E492E0E2
:1007D000F5CF223309F48CCF80919302882341F026
:1007E0008CE292E00E94E301F2E3F0939A02EBCFF5
:1007F00088E192E0F7CF80EF91E0B7CF243309F49E
:1008000077CF80919302882341F08CED91E00E9494
:10081000E30134E330939A02D6CF88EC91E0F7CF2E
:10082000253309F465CF80919302882341F084EB4E
:1008300091E00E94E30145E340939A02C4CF80EA2D
:1008400091E0F7CF88E791E075CF273309F450CFD7
:1008500080919302882331F084E691E00E94E301C5
:1008600087E39DCF80E591E0F9CF283309F440CFAD
:1008700080919302882331F08CE391E00E94E301A0
:1008800088E38DCF88E291E0F9CF293309F430CFA6
:1008900080919302882331F084E191E00E94E3018A
:1008A00089E37DCF80E091E0F9CF8091B802882381
:1008B00039F1D23301F5C093B7021092B80280919A
:1008C000CB02811150C080919302882309F445C165
:1008D000809192028823A1F170E060E085EC92E0C3
:1008E0000E94B800FC018081D8133DC01092920292
:1008F000C093C40238C0D13311F3C0939102DFCF4B
:100900008091B702882351F0D13329F4C093B60205
:100910001092B702D4CFC0939102FACF8091B60261
:10092000882369F2D23349F4C093CB02C093910279
:10093000C0939202C0939002C2CFD133F1F6E6CEBB
:100940008091C402882309F4CFC061E070E085EC97
:1009500092E00E94B800FC018081D813B7C0C09318
:10096000C3021092C4028091E9029091EA02A09120
:10097000EB02B091EC0284159505A605B70519F1B7
:10098000A090CC02B090CD02F501EE0FFF1FE25314
:10099000FD4F808191810E948F01C5010E947801E5
:1009A0000E947001C5010196B7010E9476069093DE
:1009B000CD028093CC024092E9025092EA0260920A
:1009C000EB027092EC028091E802882309F477C070
:1009D0008091E4029091E502A091E602B091E702D5
:1009E000A3019201281B390B4A0B5B0BDA01C901E9
:1009F00084369105A105B10508F461C04092E40276
:100A00005092E5026092E6027092E70280919802AD
:100A100090919902019691F4109299021092980285
:100A2000E091E202F091E30280819181909397023C
:100A3000809396021093950200939402409196023F
:100A4000509197022091940230919502B90137FF9D
:100A500002C06F5F7F4F75956795421753070CF47F
:100A6000DFC08091980290919902FC01EE0FFF1F68
:100A7000E253FD4FA081B181A20FB31FB183A083C8
:100A8000421B530B5093970240939602709395022A
:100A900060939402452B99F4019690939902809368
:100AA00098028A3091050CF4BDC01092E802D092F1
:100AB0009902C09298021093950200939402211417
:100AC000310409F4E5CD0E940000E2CD70E060E061
:100AD00085EC92E00E94B800FC018081D81709F4EF
:100AE00007CFC09392023FCF8091C302882379F051
:100AF00062E070E085EC92E00E94B800FC01808129
:100B0000D813E4CFC093C2021092C3022CCF8091BD
:100B1000C202882309F427CF63E070E085EC92E0FD
:100B20000E94B800FC018081D813D0CF10929302AC
:100B30000E94CF01EEECF2E0119211928E169F0608
:100B4000D9F71092E802F0E2F0939A02C093910272
:100B5000C0939202C093900206CF809190028823A6
:100B600079F070E060E08CEB92E00E94B800FC014C
:100B70008081D813F8CE10929002C093BB02F3CEBE
:100B80008091BB028823D1F061E070E08CEB92E0B1
:100B90000E94B800FC018081D81305C0C093BA023E
:100BA0001092BB02E0CE70E060E08CEB92E00E941D
:100BB000B800FC018081D813CDCFDFCF8091BA027D
:100BC000882379F062E070E08CEB92E00E94B8003C
:100BD000FC018081D813E7CFC093B9021092BA020A
:100BE000C2CE8091B902882309F4BDCE63E070E0E3
:100BF0008CEB92E00E94B800FC018081D813D3CF27
:100C0000C09393020E94CF01EEECF2E01192119298
:100C100022E0E23EF207D1F794CF1092ED02A3CE8C
:100C20009B0114CF880F991F2091E2023091E302BB
:100C3000820F931FFC018081918190939702809392
:100C4000960239CF61EA72E085EC92E00E944B0295
:100C500066EA72E08CEB92E00C944B028091BC024D
:100C60009091BD02009711F00E9440078091C5024B
:100C70009091C602009711F00C94400708952F92AE
:100C80003F924F925F926F927F928F929F92AF921C
:100C9000BF92CF92DF92EF92FF920F931F93CF9369
:100CA000DF93CDB7DEB7CA1BDB0B0FB6F894DEBF00
:100CB0000FBECDBF09942A88398848885F846E8426
:100CC0007D848C849B84AA84B984C884DF80EE8070
:100CD000FD800C811B81AA81B981CE0FD11D0FB679
:100CE000F894DEBF0FBECDBFED01089597FB072E30
:100CF00016F4009407D077FD09D00E948A0607FCFD
:100D000005D03EF4909581959F4F0895709561951B
:100D10007F4F0895AA1BBB1B51E107C0AA1FBB1F31
:100D2000A617B70710F0A61BB70B881F991F5A9577
:100D3000A9F780959095BC01CD010895EE0FFF1F96
:100D40000590F491E02D09940F931F93CF93DF93B7
:100D50008230910510F482E090E0E091F402F0918D
:100D6000F50230E020E0B0E0A0E0309799F42115E2
:100D7000310509F44AC0281B390B24303105D8F558
:100D80008A819B816115710589F1FB0193838283BF
:100D9000FE0111C04081518102811381481759071A
:100DA000E0F04817590799F4109761F012960C93E8
:100DB000129713961C933296CF01DF91CF911F911A
:100DC0000F9108950093F4021093F502F4CF2115CA
:100DD000310551F04217530738F0A901DB019A01A0
:100DE000BD01DF01F801C1CFEF01F9CF9093F5020A
:100DF0008093F402CDCFFE01E20FF31F8193919314
:100E00002250310939832883D7CF2091F2023091C3
:100E1000F302232B41F420919D0230919E023093E6
:100E2000F3022093F20220919B0230919C02211543
:100E3000310541F42DB73EB740919F025091A00279
:100E4000241B350BE091F202F091F302E217F30755
:100E5000A0F42E1B3F0B2817390778F0AC014E5F2A
:100E60005F4F2417350748F04E0F5F1F5093F30272
:100E70004093F202819391939FCFF0E0E0E09CCF0A
:100E8000CF93DF930097E9F0FC013297138212822F
:100E9000A091F402B091F502ED0130E020E010974E
:100EA000A1F420813181820F931F2091F2023091B1
:100EB000F3022817390709F061C0F093F302E093B9
:100EC000F202DF91CF910895EA01CE17DF07E8F52E
:100ED0004A815B819E0141155105B1F7E901FB8310
:100EE000EA8349915991C40FD51FEC17FD0761F4AE
:100EF000808191810296840F951FE90199838883EF
:100F0000828193819B838A83F0E0E0E012968D9149
:100F10009C9113970097B9F52D913C911197CD01B4
:100F20000296820F931F2091F2023091F30228174C
:100F3000390739F6309751F51092F5021092F40204
:100F4000B093F302A093F202BCCFD383C28340815B
:100F50005181840F951FC817D90761F44E5F5F4F09
:100F600088819981480F591F518340838A819B81D1
:100F7000938382832115310509F0B0CFF093F502F8
:100F8000E093F4029ECFFD01DC01C0CF13821282F8
:100F9000D7CFB0E0A0E0EFECF7E00C9441068C0175
:100FA000009751F4CB010E94A4068C01C801CDB773
:100FB000DEB7E0E10C945D06FC01E60FF71F9C0133
:100FC00022503109E217F30708F49DC0D901CD91F1
:100FD000DC911197C617D70798F0C530D10530F3CB
:100FE000CE0104978617970708F3C61BD70B2297E5
:100FF000C193D1936D937C93CF010E944007D6CFCC
:101000005B01AC1ABD0A4C018C0E9D1EA091F4022E
:10101000B091F502512C412CF12CE12C109731F5B7
:101020008091F2029091F3028815990509F05CC055
:101030004616570608F058C080919B0290919C027A
:10104000009741F48DB79EB740919F025091A00246
:10105000841B950BE817F90708F055C0F093F302CD
:10106000E093F202F90171836083A0CF8D919C918E
:10107000119712966C90129713967C901397A8155F
:10108000B90559F56C0142E0C40ED11CCA14DB0449
:1010900020F1AC014A195B09DA011296159780F02C
:1010A0006282738251834083D9016D937C93E114F2
:1010B000F10471F0D7011396FC93EE93129776CF5B
:1010C00022968C0F9D1FF90191838083F301EFCF4E
:1010D000F093F502E093F40269CF4816590608F43C
:1010E0002C017D01D3019ACFCB010E94A4067C0183
:1010F000009749F0AE01B8010E948608C8010E941D
:101100004007870153CF10E000E050CFFB01DC0126
:1011100002C001900D9241505040D8F70895FB0154
:10112000DC0101900D920020E1F7089510E0CDE57B
:10113000D0E004C0FE010E949E062196CE35D10764
:06114000C9F7F894FFCF8F
:10114600FC00FE01B703B703FF03FF03FF03FF0322
:10115600FE01FC007800FC00CC00CC00FC007C000A
:101166000C00CC00FC007800300030007000FC0061
:10117600FE03FE03FE03FE03000000007800FC00F1
:10118600CC00CC007C00F800CC00CC00FC00780041
:10119600FC00FE01FF03010231023303FF037B0360
:1011A6008601FC00FC00CC000C001C00180030007E
:1011B60030006000E000C000FC00FE01F7033703CA
:1011C600FF03FF037B038703FE01FC007800FC009E
:1011D600C000C000F800FC00CC00CC00FC00780089
:1011E600FC0002017902850201024902490201025C
:1011F6000201FC00FC00FC00C000D800FC001C0042
:101206000C001C00FC00F800FC0002014902490227
:1012160001023102790231020201FC001C003C008D
:101226006C00CC008C00FE01FE010C000C000C00D2
:10123600FC0002010102490249020102FD02790293
:101246000201FC00FC00FE000E000C00F800F80095
:101256000C000E00FE00FC00FC0002010102490227
:1012660049020102310279020201FC00F800FC0188
:101276008C010C00180030006000C000FC01FC016D
:10128600FC00FE01FF033303BB03FF0387037B035D
:10129600FE01FC00F800F80038003800380038007D
:1012A60038003800FC00FC00FC0002010102850247
:1012B60049020102310249020201FC007800FC00E9
:1012C600CC00CC00CC00CC00CC00CC00FC007800DC
:1012D600010101010002FFFFFFFF200000F602806E
:0C12E60000313233340034333231000068
:107E0000112484B714BE81FFF0D085E080938100F7
:107E100082E08093C00088E18093C10086E0809377
:107E2000C20080E18093C4008EE0C9D0259A86E02C
:107E300020E33CEF91E0309385002093840096BBD3
:107E4000B09BFECF1D9AA8958150A9F7CC24DD24C4
:107E500088248394B5E0AB2EA1E19A2EF3E0BF2EE7
:107E6000A2D0813461F49FD0082FAFD0023811F036
:107E7000013811F484E001C083E08DD089C08234E0
:107E800011F484E103C0853419F485E0A6D080C0E4
:107E9000853579F488D0E82EFF2485D0082F10E0AE
:107EA000102F00270E291F29000F111F8ED06801E7
:107EB0006FC0863521F484E090D080E0DECF843638
:107EC00009F040C070D06FD0082F6DD080E0C81688
:107ED00080E7D80618F4F601B7BEE895C0E0D1E017
:107EE00062D089930C17E1F7F0E0CF16F0E7DF06D8
:107EF00018F0F601B7BEE89568D007B600FCFDCFD4
:107F0000A601A0E0B1E02C9130E011968C91119780
:107F100090E0982F8827822B932B1296FA010C0160
:107F200087BEE89511244E5F5F4FF1E0A038BF0790
:107F300051F7F601A7BEE89507B600FCFDCF97BE46
:107F4000E89526C08437B1F42ED02DD0F82E2BD052
:107F50003CD0F601EF2C8F010F5F1F4F84911BD097
:107F6000EA94F801C1F70894C11CD11CFA94CF0C13
:107F7000D11C0EC0853739F428D08EE10CD085E9AC
:107F80000AD08FE07ACF813511F488E018D01DD067
:107F900080E101D065CF982F8091C00085FFFCCF94
:107FA0009093C60008958091C00087FFFCCF809118
:107FB000C00084FD01C0A8958091C6000895E0E648
:107FC000F0E098E1908380830895EDDF803219F02E
:107FD00088E0F5DFFFCF84E1DECF1F93182FE3DFCA
:107FE0001150E9F7F2DF1F91089580E0E8DFEE27F6
:047FF000FF270994CA
:027FFE00040479
:0400000300007E007B
:00000001FF
