:100000000C945C000C9479000C9479000C947900A9
:100010000C9479000C9479000C9479000C9479007C
:100020000C9479000C9479000C9479000C9479006C
:100030000C9479000C9479000C9479000C9479005C
:100040000C9481010C9479000C9479000C94790043
:100050000C9479000C9479000C9479000C9479003C
:100060000C9479000C947900000000080002010053
:100070000003040700000000000000000000000072
:10008000250028002B0000000000240027002A0083
:10009000040404040404040402020202020203032E
:1000A0000303030301020408102040800102040836
:1000B000102001020408102011241FBECFEFD8E049
:1000C000DEBFCDBF11E0A0E0B1E0ECE8F5E002C09A
:1000D00005900D92AE36B107D9F721E0AEE6B1E05A
:1000E00001C01D92A937B207E1F70E94CB010C9421
:1000F000C4020C94000090E0FC01EC55FF4F2491E9
:1001000080579F4FFC018491882399F090E0880FDD
:10011000991FFC01EA57FF4FA591B491FC01E458E7
:10012000FF4F859194918FB7F894EC91E22BEC936B
:100130008FBF089590E0FC01E859FF4F2491FC0126
:10014000EC55FF4F3491FC01E057FF4FE491EE2353
:10015000C9F0222339F0233001F1A8F4213019F13C
:10016000223029F1F0E0EE0FFF1FE458FF4FA59178
:10017000B4918FB7F894EC91611126C030953E236D
:100180003C938FBF08952730A9F02830C9F0243060
:1001900049F7809180008F7D03C0809180008F7728
:1001A00080938000DFCF84B58F7784BDDBCF84B5AB
:1001B0008F7DFBCF8091B0008F778093B000D2CF3E
:1001C0008091B0008F7DF9CF3E2BDACF3FB7F89406
:1001D00080916F0190917001A0917101B0917201B5
:1001E00026B5A89B05C02F3F19F00196A11DB11D92
:1001F0003FBFBA2FA92F982F8827BC01CD01620FCE
:10020000711D811D911D42E0660F771F881F991F88
:100210004A95D1F708958F929F92AF92BF92CF9255
:10022000DF92EF92FF924B015C010E94E6006B01AE
:100230007C010E94E6006C197D098E099F09683EC9
:10024000734081059105A8F321E0821A9108A10865
:10025000B10888EEC80E83E0D81EE11CF11C8114A1
:100260009104A104B10429F7FF90EF90DF90CF90A3
:10027000BF90AF909F908F900895CF93C82F682F15
:10028000617080E10E949A006C2F627081E10E948F
:100290009A006C2F647082E10E949A006C2F687043
:1002A00083E1CF910C949A00CF93DF93EC016985A1
:1002B00080E00E949A00688581E00E949A006F8128
:1002C00082E00E949A006E8183E00E949A006D8114
:1002D00084E00E949A006C8185E00E949A006B8104
:1002E00087E00E949A006A8188E00E949A006981F2
:1002F00089E00E949A0068818AE0DF91CF910C9496
:100300009A001F920F920FB60F9211242F933F93D2
:100310008F939F93AF93BF938091750190917601D6
:10032000A0917701B091780130916E0123E0230F05
:100330002D3758F50196A11DB11D20936E018093B4
:10034000750190937601A0937701B0937801809125
:100350006F0190917001A0917101B09172010196AD
:10036000A11DB11D80936F0190937001A093710145
:10037000B0937201BF91AF919F918F913F912F9157
:100380000F900FBE0F901F90189526E8230F02962E
:10039000A11DB11DD2CF789484B5826084BD84B58F
:1003A000816084BD85B5826085BD85B5816085BD70
:1003B00080916E00816080936E0010928100809128
:1003C00081008260809381008091810081608093B0
:1003D0008100809180008160809380008091B100D5
:1003E00084608093B1008091B00081608093B00000
:1003F00080917A00846080937A0080917A00826094
:1004000080937A0080917A00816080937A00809155
:100410007A00806880937A001092C100C0E08C2F2F
:100420000E947B00CF5FC630D1F787E00E947B003F
:1004300088E00E947B0089E00E947B008AE00E94A5
:100440007B0080E10E947B0081E10E947B0082E1D1
:100450000E947B0083E10E947B0000E011E084E6C3
:10046000E82E81E0F82ED0E0C0E09AE0C92ED12C31
:10047000C8010E9454018FB7F89480907501909044
:100480007601A0907701B09078018FBF2FB7F894D4
:100490008091750190917601A0917701B0917801DA
:1004A0002FBF88199909AA09BB09893C9105A105A3
:1004B000B10580F4CE010E943D0161E070E080E072
:1004C00090E00E940B01CE010196B6010E949C02B1
:1004D000EC01DCCF065F1F4FE016F10649F60AE09B
:1004E00010E0C0917301D0917401CE010E943D01D2
:1004F00084E691E00E9454012196D0937401C09348
:10050000730168EC70E080E090E00E940B01015004
:10051000110939F7C0E0D0E08FB7F8944091750128
:100520005091760160917701709178018FBF20978B
:1005300099F30E940000F0CF97FB072E16F4009469
:1005400007D077FD09D00E94B00207FC05D03EF429
:10055000909581959F4F0895709561957F4F08956F
:10056000AA1BBB1B51E107C0AA1FBB1FA617B707D9
:1005700010F0A61BB70B881F991F5A95A9F78095F5
:0C0580009095BC01CD010895F894FFCFC8
:10058C00010000000000000000000001000000005D
:10059C00000000000000010000000000000000004E
:1005AC00000100000000000000000000010000003D
:1005BC00000000000000000100000000000000002E
:1005CC00000001000000000000000000000100001D
:1005DC00000000000000000001000000000000000E
:0E05EC000000000101010101010101010101F6
:00000001FF
