:100000000C945C000C9479000C9479000C947900A9
:100010000C9479000C9479000C9479000C9479007C
:100020000C9479000C9479000C9479000C9479006C
:100030000C9479000C9479000C9479000C9479005C
:100040000C9494010C9479000C9479000C94790030
:100050000C9479000C9479000C9479000C9479003C
:100060000C9479000C947900000000080002010053
:100070000003040700000000000000000000000072
:10008000250028002B0000000000240027002A0083
:10009000040404040404040402020202020203032E
:1000A0000303030301020408102040800102040836
:1000B000102001020408102011241FBECFEFD8E049
:1000C000DEBFCDBF11E0A0E0B1E0ECEBF5E002C097
:1000D00005900D92A431B107D9F721E0A4E1B1E078
:1000E00001C01D92AF31B207E1F70E94DE010C940E
:1000F000DC020C94000090E0FC01EC55FF4F2491D1
:1001000080579F4FFC018491882399F090E0880FDD
:10011000991FFC01EA57FF4FA591B491FC01E458E7
:10012000FF4F859194918FB7F894EC91E22BEC936B
:100130008FBF089590E0FC01E859FF4F2491FC0126
:10014000EC55FF4F3491FC01E057FF4FE491EE2353
:10015000C9F0222339F0233001F1A8F4213019F13C
:10016000223029F1F0E0EE0FFF1FE458FF4FA59178
:10017000B4918FB7F894EC91611126C030953E236D
:100180003C938FBF08952730A9F02830C9F0243060
:1001900049F7809180008F7D03C0809180008F7728
:1001A00080938000DFCF84B58F7784BDDBCF84B5AB
:1001B0008F7DFBCF8091B0008F778093B000D2CF3E
:1001C0008091B0008F7DF9CF3E2BDACF3FB7F89406
:1001D0008091150190911601A0911701B09118011D
:1001E00026B5A89B05C02F3F19F00196A11DB11D92
:1001F0003FBFBA2FA92F982F8827BC01CD01620FCE
:10020000711D811D911D42E0660F771F881F991F88
:100210004A95D1F708958F929F92AF92BF92CF9255
:10022000DF92EF92FF924B015C010E94E6006B01AE
:100230007C010E94E6006C197D098E099F09683EC9
:10024000734081059105A8F321E0821A9108A10865
:10025000B10888EEC80E83E0D81EE11CF11C8114A1
:100260009104A104B10429F7FF90EF90DF90CF90A3
:10027000BF90AF909F908F900895CF93C82F682F15
:10028000617080E10E949A006C2F627081E10E948F
:100290009A006C2F647082E10E949A006C2F687043
:1002A00083E1CF910C949A000F931F93CF93DF9328
:1002B000EC01682F617080E00E949A006C2F6270E0
:1002C00081E00E949A006C2F647082E00E949A0084
:1002D0006C2F687083E00E949A006C2F607184E03C
:1002E0000E949A006C2F607285E00E949A006C2F29
:1002F000607487E00E949A006C2F607888E00E940A
:100300009A008E01D7FF02C001501F4F612F61700C
:1003100089E00E949A00612F62708AE0DF91CF919C
:100320001F910F910C949A001F920F920FB60F928B
:1003300011242F933F938F939F93AF93BF938091FB
:100340001B0190911C01A0911D01B0911E013091E3
:10035000140123E0230F2D3758F50196A11DB11D7F
:100360002093140180931B0190931C01A0931D0105
:10037000B0931E018091150190911601A091170173
:10038000B09118010196A11DB11D809315019093A4
:100390001601A0931701B0931801BF91AF919F91DF
:1003A0008F913F912F910F900FBE0F901F90189536
:1003B00026E8230F0296A11DB11DD2CF789484B5F3
:1003C000826084BD84B5816084BD85B5826085BD51
:1003D00085B5816085BD80916E00816080936E00DF
:1003E00010928100809181008260809381008091D1
:1003F0008100816080938100809180008160809382
:1004000080008091B10084608093B1008091B00041
:1004100081608093B00080917A00846080937A003C
:1004200080917A00826080937A0080917A00816066
:1004300080937A0080917A00806880937A0010928D
:10044000C100C0E08C2F0E947B00CF5FC630D1F787
:1004500087E00E947B0088E00E947B0089E00E9488
:100460007B008AE00E947B0080E10E947B0081E1AA
:100470000E947B0082E10E947B0083E10E947B005E
:1004800000E011E084E1E82E81E0F82ED0E0C0E049
:100490009AE0C92ED12CF801819191918F010E948F
:1004A00054018FB7F89480901B0190901C01A0908C
:1004B0001D01B0901E018FBF2FB7F89480911B01D2
:1004C00090911C01A0911D01B0911E012FBF8819B0
:1004D0009909AA09BB09893C9105A105B10580F4D8
:1004E000CE010E943D0161E070E080E090E00E945A
:1004F0000B01CE010196B6010E94B402EC01DCCFE3
:10050000E016F10641F60AE010E0C0911901D09121
:100510001A01CE010E943D018FEF93E00E94540129
:100520002196D0931A01C093190168EC70E080E025
:1005300090E00E940B010150110939F790E080E032
:100540000E945401C0E0D0E08FB7F89440911B01A5
:1005500050911C0160911D0170911E018FBF209769
:1005600099F30E940000F0CF97FB072E16F4009439
:1005700007D077FD09D00E94C80207FC05D03EF4E1
:10058000909581959F4F0895709561957F4F08953F
:10059000AA1BBB1B51E107C0AA1FBB1FA617B707A9
:1005A00010F0A61BB70B881F991F5A95A9F78095C5
:0C05B0009095BC01CD010895F894FFCF98
:1005BC000002000180004000200010000800040030
:0405CC000200010028
:107E0000112484B714BE81FFF0D085E080938100F7
:107E100082E08093C00088E18093C10086E0809377
:107E2000C20080E18093C4008EE0C9D0259A86E02C
:107E300020E33CEF91E0309385002093840096BBD3
:107E4000B09BFECF1D9AA8958150A9F7CC24DD24C4
:107E500088248394B5E0AB2EA1E19A2EF3E0BF2EE7
:107E6000A2D0813461F49FD0082FAFD0023811F036
:107E7000013811F484E001C083E08DD089C08234E0
:107E800011F484E103C0853419F485E0A6D080C0E4
:107E9000853579F488D0E82EFF2485D0082F10E0AE
:107EA000102F00270E291F29000F111F8ED06801E7
:107EB0006FC0863521F484E090D080E0DECF843638
:107EC00009F040C070D06FD0082F6DD080E0C81688
:107ED00080E7D80618F4F601B7BEE895C0E0D1E017
:107EE00062D089930C17E1F7F0E0CF16F0E7DF06D8
:107EF00018F0F601B7BEE89568D007B600FCFDCFD4
:107F0000A601A0E0B1E02C9130E011968C91119780
:107F100090E0982F8827822B932B1296FA010C0160
:107F200087BEE89511244E5F5F4FF1E0A038BF0790
:107F300051F7F601A7BEE89507B600FCFDCF97BE46
:107F4000E89526C08437B1F42ED02DD0F82E2BD052
:107F50003CD0F601EF2C8F010F5F1F4F84911BD097
:107F6000EA94F801C1F70894C11CD11CFA94CF0C13
:107F7000D11C0EC0853739F428D08EE10CD085E9AC
:107F80000AD08FE07ACF813511F488E018D01DD067
:107F900080E101D065CF982F8091C00085FFFCCF94
:107FA0009093C60008958091C00087FFFCCF809118
:107FB000C00084FD01C0A8958091C6000895E0E648
:107FC000F0E098E1908380830895EDDF803219F02E
:107FD00088E0F5DFFFCF84E1DECF1F93182FE3DFCA
:107FE0001150E9F7F2DF1F91089580E0E8DFEE27F6
:047FF000FF270994CA
:027FFE00040479
:0400000300007E007B
:00000001FF
