:100000000C945E000C9486000C9486000C94860080
:100010000C9486000C9486000C9486000C94860048
:100020000C9486000C9486000C9486000C94860038
:100030000C9486000C9486000C9486000C94860028
:100040000C943D030C9486000C9486000C9486005E
:100050000C9486000C9486000C9486000C94860008
:100060000C9486000C948600000000080002010039
:100070000003040700000000000000000000000072
:10008000250028002B0000000000240027002A0083
:10009000040404040404040402020202020203032E
:1000A0000303030301020408102040800102040836
:1000B00010200102040810209508A70811241FBE73
:1000C000CFEFD8E0DEBFCDBF23E0ACEAB2E001C0A5
:1000D0001D92A230B207E1F712E0A0E0B1E0EEE23B
:1000E000F6E102C005900D92AC3AB107D9F710E0E5
:1000F000CDE5D0E004C02197FE010E941209CC3565
:10010000D107C9F70E9498030C940A0B0C940000C5
:1001100090E0FC01EC55FF4F249180579F4FFC016C
:100120008491882399F090E0880F991FFC01EA5789
:10013000FF4FA591B491FC01E458FF4F8591949134
:100140008FB7F894EC91E22BEC938FBF089580E485
:1001500080937C0080917A00806480937A00809103
:100160007A0086FDFCCF8091780090917900089507
:100170000895FC01248135816217730720F4808182
:100180009181009729F41092B50285EB92E00895D1
:10019000860F971F089590E0FC01E859FF4F2491C6
:1001A000FC01EC55FF4F3491FC01E057FF4FE49107
:1001B000EE23C9F0222339F0233001F1A8F42130D5
:1001C00019F1223029F1F0E0EE0FFF1FE458FF4F44
:1001D000A591B4918FB7F894EC91611126C0309538
:1001E0003E233C938FBF08952730A9F02830C9F0F3
:1001F000243049F7809180008F7D03C0809180007A
:100200008F7780938000DFCF84B58F7784BDDBCF7D
:1002100084B58F7DFBCF8091B0008F778093B00045
:10022000D2CF8091B0008F7DF9CF3E2BDACF3FB790
:10023000F8948091B1029091B202A091B302B09172
:10024000B40226B5A89B05C02F3F19F00196A11D49
:10025000B11D3FBFBA2FA92F982F8827BC01CD0110
:10026000620F711D811D911D42E0660F771F881F6F
:10027000991F4A95D1F708958F929F92AF92BF929E
:10028000CF92DF92EF92FF920E9417014B015C0127
:1002900088ECC82ED12CE12CF12C0E941701681992
:1002A00079098A099B09683E734081059105A8F385
:1002B00021E0C21AD108E108F10888EE880E83E037
:1002C000981EA11CB11CC114D104E104F10429F74A
:1002D000FF90EF90DF90CF90BF90AF909F908F9066
:1002E0000895CF92DF92EF92FF92CF93DF93C09069
:1002F000FA02D090FB02E090FC02F090FD02C09266
:10030000AC02D092AD02E092AE02F092AF02880F42
:10031000991F880F991FEC0125976B01770FEE0845
:10032000FF088091AC029091AD02A091AE02B09115
:10033000AF024091FA025091FB026091FC02709171
:10034000FD02841B950BA60BB70BC816D906EA064F
:10035000FB0610F161E08AE00E94CB00CE0101971C
:10036000F1F760E08AE00E94CB00CE010197F1F73F
:100370002FB7F8948091B6029091B702A091B8027D
:10038000B091B9022FBF8093AC029093AD02A093BD
:10039000AE02B093AF02C5CFDF91CF91FF90EF9047
:1003A000DF90CF90089561E08FE00E94CB0060E085
:1003B0008FE00C94CB00CF93C82F682F617080E141
:1003C0000E94CB006C2F627081E10E94CB006C2FE9
:1003D000647082E10E94CB006C2F687083E1CF9142
:1003E0000C94CB000F931F93CF93DF93EC01682FF6
:1003F000617080E00E94CB006C2F627081E00E94EF
:10040000CB006C2F647082E00E94CB006C2F687070
:1004100083E00E94CB006C2F607184E00E94CB00CF
:100420006C2F607285E00E94CB006C2F607486E0B8
:100430000E94CB006C2F607887E00E94CB008E0179
:10044000D7FF02C001501F4F612F617088E00E94EA
:10045000CB00612F627089E0DF91CF911F910F91E6
:100460000C94CB00CF93DF9390E080E00E94F201E8
:10047000D0E0C0E0CE010E94DB010E94D3012196B2
:10048000CA30D105B9F7DF91CF910895CF93DF93AB
:10049000EC01E9EDF2E01192119282E0ED3EF807F5
:1004A000D1F70E943202D093EE02C093ED028FEF9B
:1004B0009FEF90939902809398021092D802109225
:1004C000D702DF91CF910895CF93DF93EC0188811C
:1004D0009981009711F00E94B409198218821D8237
:1004E0001C821B821A82DF91CF910895FC018081CA
:1004F0009181009711F00C94B40908950F931F9304
:10050000CF93DF93EC0188819981009759F02A817C
:100510003B812617370730F081E0DF91CF911F91A3
:100520000F9108958B016F5F7F4F0E943D0A0097E6
:1005300059F0998388831B830A832C813D81232B67
:1005400059F7FC011082E8CF80E0E7CFEF92FF92ED
:100550000F931F93CF93DF936115710541F480E0F2
:10056000DF91CF911F910F91FF90EF90089541156A
:100570005105B1F07B01EC010C811D81040F151FA9
:10058000B8010E947E02882351F3288139818C8131
:100590009D81B701820F931F0E94030B1D830C8363
:1005A00081E0DECFCF93DF93EC01FB0144815581E5
:1005B000608171810E94A602811103C0CE010E9458
:1005C0006402CE01DF91CF910895EF92FF920F93D5
:1005D0001F93CF93DF93EC017B018A01BA010E9444
:1005E0007E0281110BC0CE010E946402CE01DF9118
:1005F000CF911F910F91FF90EF9008951D830C8371
:10060000B701888199810E94030BF0CFCF93DF93CC
:10061000EC01FB018617970749F060817181611534
:10062000710541F0448155810E94E502CE01DF91C0
:10063000CF9108950E946402F9CFCF93DF9300D049
:10064000CDB7DEB7FC0111821082138212821582AF
:10065000148269831A82BE016F5F7F4FFB01019094
:100660000020E9F73197AF01461B570B0E94E502C6
:100670000F900F90DF91CF9108951F920F920FB6B8
:100680000F9211242F933F938F939F93AF93BF9318
:100690008091B6029091B702A091B802B091B902D0
:1006A0003091B00223E0230F2D3758F50196A11D9C
:1006B000B11D2093B0028093B6029093B702A0932D
:1006C000B802B093B9028091B1029091B202A091A8
:1006D000B302B091B4020196A11DB11D8093B10285
:1006E0009093B202A093B302B093B402BF91AF91C2
:1006F0009F918F913F912F910F900FBE0F901F9060
:10070000189526E8230F0296A11DB11DD2CFFC013A
:10071000118210821382128215821482FB010190D1
:100720000020E9F73197AF01461B570B0C94E50207
:10073000CF93DF93CDB7DEB7AA970FB6F894DEBF9D
:100740000FBECDBF789484B5826084BD84B58160CE
:1007500084BD85B5826085BD85B5816085BD80918C
:100760006E00816080936E00109281008091810004
:1007700082608093810080918100816080938100FC
:10078000809180008160809380008091B1008460BE
:100790008093B1008091B00081608093B00080911F
:1007A0007A00846080937A0080917A0082608093DE
:1007B0007A0080917A00816080937A0080917A003B
:1007C000806880937A001092C10010E0812F0E940F
:1007D00088001F5F1A30D1F78FE00E9488008AE0FE
:1007E0000E94880080E10E94880081E10E948800C8
:1007F00082E10E94880083E10E9488007AE0C72E8F
:10080000D12C00E012E0C8010E94F201F12CE12C91
:10081000C7010E94DB010E94D3012FEFE21AF20A06
:100820003AE0E316F104A1F70E943C0117FF02C071
:100830000F5F1F4F1595079541E0C41AD10819F7AE
:100840000E9432025AE0E52EF12C0091D70210915D
:10085000D802C8010E94DB018FEF93E00E94F201F1
:100860000E94D3010E943C01C8010E94DB0190E07C
:1008700080E00E94F2010E94D3010F5F1F4F10938E
:10088000D8020093D70251E0E51AF108F1F690E0A2
:1008900080E00E94F2011092D8021092D70211E07B
:1008A00080E2382E95E3292EE12C22E0F22EAA24B4
:1008B000AA94BA2C40E0C42E40E0D42E2FB7F8946E
:1008C0008091B6029091B702A091B802B091B9029E
:1008D0002FBF8093FA029093FB02A093FC02B09387
:1008E000FD020E94A700892B09F40AC48091F90235
:1008F0008111ACC10E94A70020919A028935E2E0E3
:100900009E0709F4DEC00CF041C08F3F31E0930731
:1009100009F40AC1CCF4863E914009F41FC110933A
:10092000F90200919A028091F8028111FEC2809131
:100930009102882309F42CC1013309F033C11092CC
:1009400091021093BC022EC18A31E2E09E0709F4A5
:10095000D1C08833924019F790909302263369F002
:100960008CE891E0911002C088E791E00E94460275
:1009700086E380939A021093F3026AE070E088E0C5
:1009800097E091104DC084E893E04AC08A3D32E080
:10099000930709F462C01CF58F3752E0950709F4FC
:1009A00076C0893A924009F0BACF909093022333EF
:1009B00069F084E092E0911002C080EF91E00E9423
:1009C000460283E380939A021093F3026AE070E098
:1009D00080E293E0911024C080ED97E021C0823145
:1009E000F3E09F0701F18435934009F098CF909090
:1009F0009302203369F08CE792E0911002C088E600
:100A000092E00E94460280E380939A021093F302E0
:100A10006AE070E088EC90E0911002C084E79EE00C
:100A20000E9471017CCF90909302213369F084E59C
:100A300092E0911002C080E492E00E94460281E3BD
:100A400080939A021093F3026AE070E080E991E0EB
:100A50009110E6CF80EF9AE0E3CF9090930222339B
:100A600069F08CE292E0911002C088E192E00E946D
:100A7000460282E380939A021093F3026AE070E0E8
:100A800088E592E09110CCCF8CEF98E0C9CF9090A0
:100A90009302243369F08CED91E0911002C088EC50
:100AA00091E00E94460284E380939A021093F3023D
:100AB0006AE070E088EE93E09110B2CF80E496E0B7
:100AC000AFCF90909302253361F084EB91E09110C9
:100AD00002C080EA91E00E94460220929A0210939E
:100AE000F3026AE070E088E795E0911099CF80EB1F
:100AF00094E096CF90909302273369F084E691E0DA
:100B0000911002C080E591E00E94460287E3809345
:100B10009A021093F3026AE070E084E398E0911087
:100B20007FCF8CEB92E07CCF90909302283369F0DA
:100B30008CE391E0911002C088E291E00E944602AD
:100B400088E380939A021093F3026AE070E084ECE9
:100B500099E0911065CF84EF91E062CF909093027D
:100B6000293369F084E191E0911002C080E091E0C6
:100B70000E94460289E380939A021093F3026AE08E
:100B800070E084EE9CE091104BCF8CE291E048CF76
:100B90008091BC02882339F1023301F51093BB0226
:100BA0001092BC028091F802811150C08091930292
:100BB000882309F454C1809192028823A1F170E046
:100BC00060E089EC92E00E94B900FC018081801312
:100BD0003DC0109292021093C20238C0013311F34B
:100BE00010939102DFCF8091BB02882351F0013333
:100BF00029F41093BA021092BB02D4CF1093910241
:100C0000FACF8091BA02882369F2023349F4109333
:100C1000F802109391021093920210939002C2CFA7
:100C20000133F1F68ECE8091C202882309F4D8C038
:100C300061E070E089EC92E00E94B900FC018081E3
:100C40008013C0C01093C1021092C2024090FA02F9
:100C50005090FB026090FC027090FD028091F402C3
:100C60009091F502A091F602B091F702481659064C
:100C70006A067B0621F18090D7029090D802F40199
:100C8000EE0FFF1FE752FD4F808191810E94F2011C
:100C9000C4010E94DB010E94D301C40101966AE0F5
:100CA00070E00E94EA089093D8028093D7024092A5
:100CB000F4025092F5026092F6027092F70280916F
:100CC000F302882309F477C08091EF029091F0023B
:100CD000A091F102B091F202A3019201281B390BFD
:100CE0004A0B5B0BDA01C90184369105A105B105F8
:100CF00008F461C04092EF025092F0026092F1025B
:100D00007092F2028091980290919902019691F46A
:100D10001092990210929802E091ED02F091EE0289
:100D2000808191819093970280939602F092950230
:100D3000E092940240919602509197022091940281
:100D400030919502B90137FF02C06F5F7F4F7595F3
:100D50006795421753070CF4D6C180919802909181
:100D60009902FC01EE0FFF1FE752FD4FA081B181F8
:100D7000A20FB31FB183A083421B530B5093970262
:100D8000409396027093950260939402452B99F4D8
:100D9000019690939902809398028A3091050CF401
:100DA000B4C11092F302B0929902A0929802F0920C
:100DB0009502E0929402C114D10409F47FCD0E94FF
:100DC00000006DCD70E060E089EC92E00E94B90017
:100DD000FC018081801709F4FECE1093920236CF79
:100DE0008091C102882379F062E070E089EC92E0A2
:100DF0000E94B900FC0180818013E4CF1093C002EF
:100E00001092C10223CF8091C002882309F41ECF23
:100E100063E070E089EC92E00E94B900FC018081FF
:100E20008013D0CF109293020E94320268EE73E0DA
:100E300080EA9FE00E947101E9EDF2E011921192C7
:100E400022E0ED3EF207D1F71092F30230929A02BF
:100E5000109391021093920210939002F7CE80911A
:100E60009002882379F070E060E083EC92E00E94C9
:100E7000B900FC0180818013E9CE1092900210939A
:100E8000BF02E4CE8091BF028823D1F061E070E020
:100E900083EC92E00E94B900FC018081801305C0C0
:100EA0001093BE021092BF02D1CE70E060E083ECDE
:100EB00092E00E94B900FC0180818013CDCFDFCF8A
:100EC0008091BE02882379F062E070E083EC92E0CA
:100ED0000E94B900FC0180818013E7CF1093BD020E
:100EE0001092BE02B3CE8091BD02882309F4AECE2B
:100EF00063E070E083EC92E00E94B900FC01808125
:100F00008013D3CF109393020E94320268EE73E0F5
:100F100080EA9FE00E947101E9EDF2E011921192E6
:100F200022E0ED3EF207D1F78FCF602FCE01019680
:100F30000E941D034D815E8169817A8181ED92E07D
:100F40000E94A602CE0101960E9476028091CF02F5
:100F50009091D0028330910534F401969093D002A1
:100F60008093CF0273CE61ED72E089EC92E00E9433
:100F7000060318A21F8E1AA219A21CA21BA261EDC1
:100F800072E0CE014F960E94060370E060E0CE0151
:100F90004F960E94B900FC016081CE0101960E942B
:100FA0001D0361E070E0CE014F960E94B900FC0184
:100FB0006081CE0107960E941D0362E070E0CE01C1
:100FC0004F960E94B900FC016081CE010D960E94EF
:100FD0001D0363E070E0CE014F960E94B900FC0152
:100FE0006081CE0149960E941D031C8A1B8A1E8ABD
:100FF0001D8A188E1F8ABE01675E7F4FCE01439601
:101000000E940603BE01635F7F4FCE0143960E949C
:10101000D202BE01695F7F4F0E94D202BE016F5FA4
:101020007F4F0E94D2021EA21DA218A61FA21AA6BE
:1010300019A6BC01CE0185960E940603CE014396F7
:101040000E947602CE0149960E947602CE010D964C
:101050000E947602CE0107960E947602CE0101968A
:101060000E9476028091C3029091C402009789F198
:101070006DA17EA16115710551F14091C50250919C
:10108000C60229A53AA54217530708F10E94030B8F
:1010900089A59AA59093C8028093C7021AA619A69B
:1010A000CE0185960E947602CE014F960E9476026E
:1010B0001092F8021092D0021092CF0250E040E05D
:1010C0006AEA72E081ED92E00E94E502BFCD0E94E3
:1010D000B4098DA19EA19093C4028093C3028FA1F5
:1010E00098A59093C6028093C50289A59AA590936E
:1010F000C8028093C7021EA21DA218A61FA2CECFAF
:101100001092F902A3CD9B011DCE880F991F20914B
:10111000ED023091EE02820F931FFC0180819181DC
:10112000909397028093960242CE61EA72E089EC36
:1011300092E00E94870366EA72E083EC92E00E94EC
:1011400087036AEA72E081ED92E00C94870381EDF7
:1011500092E00E94760283EC92E00E94760289EC93
:1011600092E00C9476022F923F924F925F926F9290
:101170007F928F929F92AF92BF92CF92DF92EF9227
:10118000FF920F931F93CF93DF93CDB7DEB7CA1BA8
:10119000DB0B0FB6F894DEBF0FBECDBF09942A88D3
:1011A000398848885F846E847D848C849B84AA847B
:1011B000B984C884DF80EE80FD800C811B81AA8108
:1011C000B981CE0FD11D0FB6F894DEBF0FBECDBFD3
:1011D000ED01089597FB072E16F4009407D077FDD4
:1011E00009D00E94FE0807FC05D03EF49095819539
:1011F0009F4F0895709561957F4F0895AA1BBB1B63
:1012000051E107C0AA1FBB1FA617B70710F0A61B06
:10121000B70B881F991F5A95A9F780959095BC0127
:10122000CD010895EE0FFF1F0590F491E02D099474
:101230000F931F93CF93DF938230910510F482E0D8
:1012400090E0E0910003F091010330E020E0B0E095
:10125000A0E0309799F42115310509F44AC0281B04
:10126000390B24303105D8F58A819B8161157105D0
:1012700089F1FB0193838283FE0111C0408151817A
:101280000281138148175907E0F04817590799F46C
:10129000109761F012960C93129713961C93329646
:1012A000CF01DF91CF911F910F910895009300031B
:1012B00010930103F4CF2115310551F04217530764
:1012C00038F0A901DB019A01BD01DF01F801C1CFAE
:1012D000EF01F9CF9093010380930003CDCFFE017E
:1012E000E20FF31F819391932250310939832883B0
:1012F000D7CF2091FE023091FF02232B41F42091A1
:101300009D0230919E023093FF022093FE022091B5
:101310009B0230919C022115310541F42DB73EB757
:1013200040919F025091A002241B350BE091FE02D8
:10133000F091FF02E217F307A0F42E1B3F0B2817D2
:10134000390778F0AC014E5F5F4F2417350748F03E
:101350004E0F5F1F5093FF024093FE0281939193C3
:101360009FCFF0E0E0E09CCFCF93DF930097E9F0D0
:10137000FC01329713821282A0910003B091010305
:10138000ED0130E020E01097A1F420813181820F3F
:10139000931F2091FE023091FF022817390709F0B0
:1013A00061C0F093FF02E093FE02DF91CF910895B8
:1013B000EA01CE17DF07E8F54A815B819E014115FE
:1013C0005105B1F7E901FB83EA8349915991C40FB3
:1013D000D51FEC17FD0761F4808191810296840F7F
:1013E000951FE90199838883828193819B838A83F6
:1013F000F0E0E0E012968D919C9113970097B9F57B
:101400002D913C911197CD010296820F931F20914F
:10141000FE023091FF022817390739F6309751F54F
:101420001092010310920003B093FF02A093FE02FA
:10143000BCCFD383C28340815181840F951FC817CD
:10144000D90761F44E5F5F4F88819981480F591F1A
:10145000518340838A819B81938382832115310547
:1014600009F0B0CFF0930103E09300039ECFFD019C
:10147000DC01C0CF13821282D7CFB0E0A0E0E3E45A
:10148000FAE00C94B5088C01009751F4CB010E944E
:1014900018098C01C801CDB7DEB7E0E10C94D10882
:1014A000FC01E60FF71F9C0122503109E217F307F8
:1014B00008F49DC0D901CD91DC911197C617D707CB
:1014C00098F0C530D10530F3CE0104978617970701
:1014D00008F3C61BD70B2297C193D1936D937C93CE
:1014E000CF010E94B409D6CF5B01AC1ABD0A4C01F2
:1014F0008C0E9D1EA0910003B0910103512C412C34
:10150000F12CE12C109731F58091FE029091FF02B1
:101510008815990509F05CC04616570608F058C0B2
:1015200080919B0290919C02009741F48DB79EB7E9
:1015300040919F025091A002841B950BE817F90778
:1015400008F055C0F093FF02E093FE02F9017183A9
:101550006083A0CF8D919C91119712966C901297F9
:1015600013967C901397A815B90559F56C0142E0C4
:10157000C40ED11CCA14DB0420F1AC014A195B096A
:10158000DA011296159780F062827382518340834C
:10159000D9016D937C93E114F10471F0D701139696
:1015A000FC93EE93129776CF22968C0F9D1FF90134
:1015B00091838083F301EFCFF0930103E093000365
:1015C00069CF4816590608F42C017D01D3019ACF42
:1015D000CB010E9418097C01009749F0AE01B801C7
:1015E0000E94FA0AC8010E94B409870153CF10E093
:1015F00000E050CFFB01DC0102C001900D92415090
:101600005040D8F70895FB01DC0101900D920020B5
:10161000E1F7089510E0CDE5D0E004C0FE010E949E
:0E16200012092196CE35D107C9F7F894FFCFF5
:10162E00FC00FE01B703B703FF03FF03FF03FF0335
:10163E00FE01FC007800FC00CC00CC00FC007C001D
:10164E000C00CC00FC007800300030007000FC0074
:10165E00FE03FE03FE03FE03000000007800FC0004
:10166E00CC00CC007C00F800CC00CC00FC00780054
:10167E00FC00FE01FF03010231023303FF037B0373
:10168E008601FC00FC00CC000C001C001800300091
:10169E0030006000E000C000FC00FE01F7033703DD
:1016AE00FF03FF037B038703FE01FC007800FC00B1
:1016BE00C000C000F800FC00CC00CC00FC0078009C
:1016CE00FC0002017902850201024902490201026F
:1016DE000201FC00FC00FC00C000D800FC001C0055
:1016EE000C001C00FC00F800FC000201490249023B
:1016FE0001023102790231020201FC001C003C00A1
:10170E006C00CC008C00FE01FE010C000C000C00E5
:10171E00FC0002010102490249020102FD027902A6
:10172E000201FC00FC00FE000E000C00F800F800A8
:10173E000C000E00FE00FC00FC000201010249023A
:10174E0049020102310279020201FC00F800FC019B
:10175E008C010C00180030006000C000FC01FC0180
:10176E00FC00FE01FF033303BB03FF0387037B0370
:10177E00FE01FC00F800F800380038003800380090
:10178E0038003800FC00FC00FC000201010285025A
:10179E0049020102310249020201FC007800FC00FC
:1017AE00CC00CC00CC00CC00CC00CC00FC007800EF
:1017BE00010101010002FFFFFFFF20000002038074
:0C17CE000031323334003433323100007B
:107E0000112484B714BE81FFF0D085E080938100F7
:107E100082E08093C00088E18093C10086E0809377
:107E2000C20080E18093C4008EE0C9D0259A86E02C
:107E300020E33CEF91E0309385002093840096BBD3
:107E4000B09BFECF1D9AA8958150A9F7CC24DD24C4
:107E500088248394B5E0AB2EA1E19A2EF3E0BF2EE7
:107E6000A2D0813461F49FD0082FAFD0023811F036
:107E7000013811F484E001C083E08DD089C08234E0
:107E800011F484E103C0853419F485E0A6D080C0E4
:107E9000853579F488D0E82EFF2485D0082F10E0AE
:107EA000102F00270E291F29000F111F8ED06801E7
:107EB0006FC0863521F484E090D080E0DECF843638
:107EC00009F040C070D06FD0082F6DD080E0C81688
:107ED00080E7D80618F4F601B7BEE895C0E0D1E017
:107EE00062D089930C17E1F7F0E0CF16F0E7DF06D8
:107EF00018F0F601B7BEE89568D007B600FCFDCFD4
:107F0000A601A0E0B1E02C9130E011968C91119780
:107F100090E0982F8827822B932B1296FA010C0160
:107F200087BEE89511244E5F5F4FF1E0A038BF0790
:107F300051F7F601A7BEE89507B600FCFDCF97BE46
:107F4000E89526C08437B1F42ED02DD0F82E2BD052
:107F50003CD0F601EF2C8F010F5F1F4F84911BD097
:107F6000EA94F801C1F70894C11CD11CFA94CF0C13
:107F7000D11C0EC0853739F428D08EE10CD085E9AC
:107F80000AD08FE07ACF813511F488E018D01DD067
:107F900080E101D065CF982F8091C00085FFFCCF94
:107FA0009093C60008958091C00087FFFCCF809118
:107FB000C00084FD01C0A8958091C6000895E0E648
:107FC000F0E098E1908380830895EDDF803219F02E
:107FD00088E0F5DFFFCF84E1DECF1F93182FE3DFCA
:107FE0001150E9F7F2DF1F91089580E0E8DFEE27F6
:047FF000FF270994CA
:027FFE00040479
:0400000300007E007B
:00000001FF
