:100000000C945D000C9485000C9485000C94850084
:100010000C9485000C9485000C9485000C9485004C
:100020000C9485000C9485000C9485000C9485003C
:100030000C9485000C9485000C9485000C9485002C
:100040000C9421030C9485000C94EF020C94C902CB
:100050000C9485000C9485000C9485000C9485000C
:100060000C9485000C94850000000008000201003B
:100070000003040700000000000000000000000072
:10008000250028002B0000000000240027002A0083
:10009000040404040404040402020202020203032E
:1000A0000303030301020408102040800102040836
:1000B0001020010204081020B80511241FBECFEF44
:1000C000D8E0DEBFCDBF11E0A0E0B1E0EAE2FCE0A5
:1000D00002C005900D92A033B107D9F721E0A0E34B
:1000E000B1E001C01D92AB3FB207E1F710E0CDE5F2
:1000F000D0E004C02197FE010E940D06CC35D10747
:10010000C9F70E946B030C9413060C94000090E056
:10011000FC01EC55FF4F249180579F4FFC018491C7
:10012000882399F090E0880F991FFC01EA57FF4F50
:10013000A591B491FC01E458FF4F859194918FB73C
:10014000F894EC91E22BEC938FBF089580E48093B8
:100150007C0080917A00806480937A0080917A009C
:1001600086FDFCCF80917800909179000895AF9240
:10017000BF92CF92DF92EF92FF920F931F93CF9394
:10018000DF936C017B018B01040F151FEB015E01F6
:10019000AE18BF08C017D10759F06991D601ED918B
:1001A000FC910190F081E02DC6010995892B79F72A
:1001B000C501DF91CF911F910F91FF90EF90DF90DC
:1001C000CF90BF90AF900895FC01538D448D252FA3
:1001D00030E0842F90E0821B930B541710F0CF96E1
:1001E000089501970895FC01918D828D981761F013
:1001F000A28DAE0FBF2FB11D5D968C91928D9F5F2A
:100200009F73928F90E008958FEF9FEF0895FC0108
:10021000918D828D981731F0828DE80FF11D858DBB
:1002200090E008958FEF9FEF0895FC01918D228D4E
:10023000892F90E0805C9F4F821B91098F739927D3
:1002400008958DE591E00E94150121E0892B09F4C4
:1002500020E0822F089580E090E0892B29F00E9411
:10026000210181110C9400000895FC01A48DA80FB8
:10027000B92FB11DA35ABF4F2C91848D90E00196E8
:100280008F739927848FA689B7892C93A089B18908
:100290008C91837080648C93938D848D981306C0A9
:1002A0000288F389E02D80818F7D80830895EF920D
:1002B000FF920F931F93CF93DF93EC0181E0888F20
:1002C0009B8D8C8D98131AC0E889F989808185FFF0
:1002D00015C09FB7F894EE89FF896083E889F98992
:1002E00080818370806480839FBF81E090E0DF9194
:1002F000CF911F910F91FF90EF900895F62E0B8DE7
:1003000010E00F5F1F4F0F731127E02E8C8D8E11A1
:100310000CC00FB607FCFACFE889F989808185FF08
:10032000F5CFCE010E943501F1CFEB8DEC0FFD2F03
:10033000F11DE35AFF4FF0829FB7F8940B8FEA89C3
:10034000FB8980818062CFCFCF93DF93EC01888DD2
:100350008823B9F0AA89BB89E889F9898C9185FD40
:1003600003C0808186FD0DC00FB607FCF7CF8C91CE
:1003700085FFF2CF808185FFEDCFCE010E94350150
:10038000E9CFDF91CF91089590E0FC01E859FF4F4C
:100390002491FC01EC55FF4F3491FC01E057FF4FD5
:1003A000E491EE23C9F0222339F0233001F1A8F4BF
:1003B000213019F1223029F1F0E0EE0FFF1FE4584F
:1003C000FF4FA591B4918FB7F894EC91611126C0BD
:1003D00030953E233C938FBF08952730A9F02830F5
:1003E000C9F0243049F7809180008F7D03C080914F
:1003F00080008F7780938000DFCF84B58F7784BDB6
:10040000DBCF84B58F7DFBCF8091B0008F77809359
:10041000B000D2CF8091B0008F7DF9CF3E2BDACFE4
:100420003FB7F8948091310190913201A09133014E
:10043000B091340126B5A89B05C02F3F19F0019655
:10044000A11DB11D3FBFBA2FA92F982F8827BC012E
:10045000CD01620F711D811D911D42E0660F771F56
:10046000881F991F4A95D1F708958F929F92AF9256
:10047000BF92CF92DF92EF92FF920E9410024B0147
:100480005C0188ECC82ED12CE12CF12C0E941002CA
:10049000681979098A099B09683E734081059105AD
:1004A000A8F321E0C21AD108E108F10888EE880E0D
:1004B00083E0981EA11CB11CC114D104E104F10415
:1004C00029F7FF90EF90DF90CF90BF90AF909F9073
:1004D0008F90089561E08FE00E94C40160E08FE09A
:1004E0000C94C401CF93C82F682F617080E10E94E3
:1004F000C4016C2F627081E10E94C4016C2F647092
:1005000082E10E94C4016C2F687083E1CF910C944A
:10051000C4010F931F93CF93DF93EC01682F617099
:1005200080E00E94C4016C2F627081E00E94C401CF
:100530006C2F647082E00E94C4016C2F687083E0AD
:100540000E94C4016C2F607184E00E94C4016C2F72
:10055000607285E00E94C4016C2F607486E00E9486
:10056000C4016C2F607887E00E94C4018E01D7FF20
:1005700002C001501F4F612F617088E00E94C401CA
:10058000612F627089E0DF91CF911F910F910C94E0
:10059000C4011F920F920FB60F9211242F933F9315
:1005A0004F935F936F937F938F939F93AF93BF937B
:1005B000EF93FF938DE591E00E943501FF91EF915C
:1005C000BF91AF919F918F917F916F915F914F916B
:1005D0003F912F910F900FBE0F901F9018951F9273
:1005E0000F920FB60F9211242F938F939F93EF9337
:1005F000FF93E0916D01F0916E018081E0917301B4
:10060000F091740182FD1BC09081809176018F5F13
:100610008F7320917701821741F0E0917601F0E02D
:10062000E35AFE4F958F80937601FF91EF919F9152
:100630008F912F910F900FBE0F901F901895808172
:10064000F4CF1F920F920FB60F9211242F933F9366
:100650008F939F93AF93BF93809135019091360113
:10066000A0913701B09138013091300123E0230F80
:100670002D3758F50196A11DB11D209330018093AF
:10068000350190933601A0933701B09338018091E2
:10069000310190913201A0913301B0913401019662
:1006A000A11DB11D8093310190933201A0933301BC
:1006B000B0933401BF91AF919F918F913F912F9152
:1006C0000F900FBE0F901F90189526E8230F0296EB
:1006D000A11DB11DD2CF789484B5826084BD84B54C
:1006E000816084BD85B5826085BD85B5816085BD2D
:1006F00080916E00816080936E00109281008091E5
:10070000810082608093810080918100816080936C
:100710008100809180008160809380008091B10091
:1007200084608093B1008091B00081608093B000BC
:1007300080917A00846080937A0080917A00826050
:1007400080937A0080917A00816080937A00809112
:100750007A00806880937A001092C100D0E08D2FDB
:100760000E948700DF5FDA30D1F78FE00E948700B8
:1007700080E10E94870081E10E94870082E10E945F
:10078000870083E10E9487007AE0C72ED12C00E029
:1007900012E0C8010E948902F12CE12CC7010E94DD
:1007A00072020E946A022FEFE21AF20A3AE0E3169E
:1007B000F104A1F70E94350217FF02C00F5F1F4F1F
:1007C0001595079541E0C41AD10819F790E080E02B
:1007D0000E94890210E000E0C8010E9472020E949B
:1007E0006A020F5F1F4F0A301105B1F75AE0E52E7C
:1007F000F12C0091390110913A01C8010E94720256
:100800008FEF93E00E9489020E946A020E943502E3
:10081000C8010E94720290E080E00E9489020E945A
:100820006A020F5F1F4F10933A010093390151E0A4
:10083000E51AF108F1F690E080E00E94890210923A
:100840003A0110923901E0916D01F0916E0182E060
:100850008083E0916901F0916A011082E0916B015F
:10086000F0916C018FEC808310927501E091710121
:10087000F091720186E08083E0916F01F091700148
:10088000808180618083E0916F01F09170018081AF
:1008900088608083E0916F01F091700180818068B1
:1008A0008083E0916F01F091700180818F7D808362
:1008B000D1E097E0292E91E0392E2AE0E22EF12CAA
:1008C00000E012E0CC24CA94DC2C40E0842E40E00E
:1008D000942E0E94A600892B09F435C18091FA015B
:1008E000811121C00E94A6008935E2E09E0709F42B
:1008F0001AC10CF0EFC08F3F21E0920709F41BC131
:100900000CF0DCC0863E914009F419C16C2F8DE5D6
:1009100091E00E94570142E050E06DE271E08DE508
:1009200091E00E94B70030925C0120925B018FB78A
:10093000F8944090350150903601609037017090E6
:1009400038018FBF4092570150925801609259016F
:1009500070925A018091530190915401A0915501D8
:10096000B091560184159505A605B70519F1A0901B
:100970003901B0903A01F501EE0FFF1FE55CFE4F23
:10098000808191810E948902C5010E9472020E94A9
:100990006A02C5010196B7010E94E50590933A01EC
:1009A0008093390140925301509254016092550155
:1009B0007092560180910601882309F473C08091DA
:1009C0004F0190915001A0915101B0915201A301AA
:1009D0009201281B390B4A0B5B0BDA01C9018436E3
:1009E0009105A105B10508F45DC040924F015092F8
:1009F00050016092510170925201809104019091D6
:100A00000501019671F41092050110920401E09124
:100A10005B01F0915C01808191819093030180934F
:100A20000201409102015091030120910001309197
:100A30000101B90137FF02C06F5F7F4F7595679560
:100A4000421753070CF482C0809104019091050174
:100A5000FC01EE0FFF1FE55CFE4FA081B181A20FEC
:100A6000B31FB183A083421B530B509303014093E8
:100A700002017093010160930001452B99F40196E6
:100A800090930501809304018A3091050CF460C0B5
:100A900010920601D0920501C09204011093010149
:100AA000009300018114910409F413CF0E942101E5
:100AB000882309F40ECF0E9400000BCF8A3152E048
:100AC0009507A9F18833924009F020CFD093FA011D
:100AD000C6E31CCF8A3DF2E09F07E9F064F48F374C
:100AE00032E09307E1F0893A924009F00FCFD093BA
:100AF000FA01C3E30BCF823153E0950741F084350F
:100B0000934009F003CFD093FA01C0E3FFCED09316
:100B1000FA01C1E3FBCED093FA01C2E3F7CED09342
:100B2000FA01C4E3F3CED093FA01C5E3EFCED0933C
:100B3000FA01C7E3EBCED093FA01C8E3E7CED09336
:100B4000FA01C9E3E3CE1092FA01EDCE9B0171CF19
:100B5000880F991F20915B0130915C01820F931FD8
:100B6000FC0180819181909303018093020196CFD3
:100B7000EDE5F1E01382128288EE93E0A0E0B0E0B0
:100B800084839583A683B7838FE191E091838083EB
:100B900085EC90E09587848784EC90E09787868742
:100BA00080EC90E0918B808B81EC90E0938B828B3A
:100BB00082EC90E0958B848B86EC90E0978B868B13
:100BC000118E128E138E148E089597FB072E16F435
:100BD000009407D077FD09D00E94F90507FC05D0E5
:100BE0003EF4909581959F4F0895709561957F4F44
:100BF0000895AA1BBB1B51E107C0AA1FBB1FA61764
:100C0000B70710F0A61BB70B881F991F5A95A9F7B5
:100C100080959095BC01CD010895EE0FFF1F0590C2
:0A0C2000F491E02D0994F894FFCF41
:100C2A000002FFFFFFFF01000001000000010000B9
:100C3A000001000000010000000100000000005750
:100C4A0001B700E400A4011501F30007010D0A0031
:107E0000112484B714BE81FFF0D085E080938100F7
:107E100082E08093C00088E18093C10086E0809377
:107E2000C20080E18093C4008EE0C9D0259A86E02C
:107E300020E33CEF91E0309385002093840096BBD3
:107E4000B09BFECF1D9AA8958150A9F7CC24DD24C4
:107E500088248394B5E0AB2EA1E19A2EF3E0BF2EE7
:107E6000A2D0813461F49FD0082FAFD0023811F036
:107E7000013811F484E001C083E08DD089C08234E0
:107E800011F484E103C0853419F485E0A6D080C0E4
:107E9000853579F488D0E82EFF2485D0082F10E0AE
:107EA000102F00270E291F29000F111F8ED06801E7
:107EB0006FC0863521F484E090D080E0DECF843638
:107EC00009F040C070D06FD0082F6DD080E0C81688
:107ED00080E7D80618F4F601B7BEE895C0E0D1E017
:107EE00062D089930C17E1F7F0E0CF16F0E7DF06D8
:107EF00018F0F601B7BEE89568D007B600FCFDCFD4
:107F0000A601A0E0B1E02C9130E011968C91119780
:107F100090E0982F8827822B932B1296FA010C0160
:107F200087BEE89511244E5F5F4FF1E0A038BF0790
:107F300051F7F601A7BEE89507B600FCFDCF97BE46
:107F4000E89526C08437B1F42ED02DD0F82E2BD052
:107F50003CD0F601EF2C8F010F5F1F4F84911BD097
:107F6000EA94F801C1F70894C11CD11CFA94CF0C13
:107F7000D11C0EC0853739F428D08EE10CD085E9AC
:107F80000AD08FE07ACF813511F488E018D01DD067
:107F900080E101D065CF982F8091C00085FFFCCF94
:107FA0009093C60008958091C00087FFFCCF809118
:107FB000C00084FD01C0A8958091C6000895E0E648
:107FC000F0E098E1908380830895EDDF803219F02E
:107FD00088E0F5DFFFCF84E1DECF1F93182FE3DFCA
:107FE0001150E9F7F2DF1F91089580E0E8DFEE27F6
:047FF000FF270994CA
:027FFE00040479
:0400000300007E007B
:00000001FF
