:100000000C945C000C9479000C9479000C947900A9
:100010000C9479000C9479000C9479000C9479007C
:100020000C9479000C9479000C9479000C9479006C
:100030000C9479000C9479000C9479000C9479005C
:100040000C94E2010C9479000C9479000C947900E2
:100050000C9479000C9479000C9479000C9479003C
:100060000C9479000C947900000000080002010053
:100070000003040700000000000000000000000072
:10008000250028002B0000000000240027002A0083
:10009000040404040404040402020202020203032E
:1000A0000303030301020408102040800102040836
:1000B000102001020408102011241FBECFEFD8E049
:1000C000DEBFCDBF11E0A0E0B1E0E2E5F9E002C0A3
:1000D00005900D92A03DB107D9F722E0A0EDB1E067
:1000E00001C01D92A030B207E1F70E942C020C94CF
:1000F000A7040C94000090E0FC01EC55FF4F249104
:1001000080579F4FFC018491882399F090E0880FDD
:10011000991FFC01EA57FF4FA591B491FC01E458E7
:10012000FF4F859194918FB7F894EC91E22BEC936B
:100130008FBF089580E480937C0080917A00806472
:1001400080937A0080917A0086FDFCCF80917800C0
:1001500090917900089590E0FC01E859FF4F2491B7
:10016000FC01EC55FF4F3491FC01E057FF4FE49147
:10017000EE23C9F0222339F0233001F1A8F4213015
:1001800019F1223029F1F0E0EE0FFF1FE458FF4F84
:10019000A591B4918FB7F894EC91611126C0309578
:1001A0003E233C938FBF08952730A9F02830C9F033
:1001B000243049F7809180008F7D03C080918000BA
:1001C0008F7780938000DFCF84B58F7784BDDBCFBE
:1001D00084B58F7DFBCF8091B0008F778093B00086
:1001E000D2CF8091B0008F7DF9CF3E2BDACF3FB7D1
:1001F000F8948091D1019091D201A091D301B09156
:10020000D40126B5A89B05C02F3F19F00196A11D6A
:10021000B11D3FBFBA2FA92F982F8827BC01CD0150
:10022000620F711D811D911D42E0660F771F881FAF
:10023000991F4A95D1F708958F929F92AF92BF92DE
:10024000CF92DF92EF92FF920E94F7004B015C0188
:1002500088ECC82ED12CE12CF12C0E94F7006819F3
:1002600079098A099B09683E734081059105A8F3C5
:1002700021E0C21AD108E108F10888EE880E83E077
:10028000981EA11CB11CC114D104E104F10429F78A
:10029000FF90EF90DF90CF90BF90AF909F908F90A6
:1002A000089561E08FE00E94AB0060E08FE00C9465
:1002B000AB00CF93C82F682F617080E10E94AB0024
:1002C0006C2F627081E10E94AB006C2F647082E140
:1002D0000E94AB006C2F687083E1CF910C94AB004F
:1002E0000F931F93CF93DF93EC01682F617080E031
:1002F0000E94AB006C2F627081E00E94AB006C2FFB
:10030000647082E00E94AB006C2F687083E00E94F2
:10031000AB006C2F607184E00E94AB006C2F6072A8
:1003200085E00E94AB006C2F607486E00E94AB00F9
:100330006C2F607887E00E94AB008E01D7FF02C06F
:1003400001501F4F612F617088E00E94AB00612F48
:10035000627089E0DF91CF911F910F910C94AB00F7
:10036000CF93DF9390E080E00E947001D0E0C0E086
:10037000CE010E9459010E9451012196CA30D10537
:10038000B9F7DF91CF910895CF93DF93EC01EBEDB7
:10039000F1E01192119281E0EF3EF807D1F70E944F
:1003A000B001D093F001C093EF018FEF9FEF9093D6
:1003B000CE018093CD011092DA011092D901DF9124
:1003C000CF9108951F920F920FB60F9211242F9381
:1003D0003F938F939F93AF93BF938091D50190915B
:1003E000D601A091D701B091D8013091D00123E07E
:1003F000230F2D3758F50196A11DB11D2093D00173
:100400008093D5019093D601A093D701B093D801E2
:100410008091D1019091D201A091D301B091D401EA
:100420000196A11DB11D8093D1019093D201A0939B
:10043000D301B093D401BF91AF919F918F913F9120
:100440002F910F900FBE0F901F90189526E8230F45
:100450000296A11DB11DD2CF789484B5826084BD6F
:1004600084B5816084BD85B5826085BD85B58160B8
:1004700085BD80916E00816080936E001092810036
:1004800080918100826080938100809181008160F1
:1004900080938100809180008160809380008091B2
:1004A000B10084608093B1008091B000816080933E
:1004B000B00080917A00846080937A0080917A0005
:1004C000826080937A0080917A00816080937A00C4
:1004D00080917A00806880937A001092C100C0E019
:1004E0008C2F0E947B00CF5FCA30D1F78FE00E9433
:1004F0007B0080E10E947B0081E10E947B0082E121
:100500000E947B0083E10E947B007AE0E72EF12CC1
:10051000C0E0D2E0CE010E94700110E000E0C8010E
:100520000E9459010E9451010F5F1F4F0A301105AF
:10053000B1F70E941C01D7FD2196D595C79521E002
:10054000E21AF10839F70E94B0010AE010E0C09108
:10055000D901D091DA01CE010E9459018FEF93E0C9
:100560000E9470010E9451010E941C01CE010E9454
:10057000590190E080E00E9470010E945101219693
:10058000D093DA01C093D9010150110901F790E02D
:1005900080E00E9470011092DA011092D9013AE0D5
:1005A000E32EF12C40E0842E40E0942EC1E000E0E8
:1005B00012E0CC24CA94DC2C93E3292E28E3322EBB
:1005C000D7E38FB7F8944090D5015090D601609052
:1005D000D7017090D8018FBF4092FC015092FD016D
:1005E0006092FE017092FF010E949A00892B09F42B
:1005F00071C18091FB01811116C00E949A0089355A
:1006000032E0930709F436C10CF0DCC08F3F51E0B3
:10061000950709F448C10CF0C1C0863E914009F429
:100620004EC1C093FB018091F7019091F801A09118
:10063000F901B091FA0184159505A605B70519F1E0
:10064000A090D901B090DA01F501EE0FFF1FE5523D
:10065000FE4F808191810E947001C5010E94590165
:100660000E945101C5010196B7010E947F04909339
:10067000DA018093D9014092F7015092F80160921B
:10068000F9017092FA018091F601882309F47FC084
:100690008091F2019091F301A091F401B091F501E4
:1006A000A3019201281B390B4A0B5B0BDA01C9012C
:1006B00084369105A105B10508F469C04092F201A4
:1006C0005092F3016092F4017092F5018091CD0196
:1006D0009091CE01019691F41092CE011092CD012D
:1006E000E091EF01F091F001808191819093CC0134
:1006F0008093CB011093CA010093C9014091CB01B3
:100700005091CC012091C9013091CA01B90137FF44
:1007100002C06F5F7F4F75956795421753070CF4C2
:10072000DCC08091CD019091CE01FC01EE0FFF1F46
:10073000E552FE4FA081B181A20FB31FB183A08308
:10074000421B530B5093CC014093CB017093CA01D1
:100750006093C901452B99F401969093CE01809343
:10076000CD018A3091050CF4BAC0C093F101D0924A
:10077000CE01C092CD011093CA010093C9018091AE
:10078000F101882321F01092F6011092F1018114F9
:10079000910409F416CF0E9400000ECF8A3122E0A6
:1007A000920709F474C08833924009F03ACF8091DF
:1007B000C801863309F435CF8CE391E00E94C4016F
:1007C00086E348C08A3D42E09407D1F1ACF48F370C
:1007D000E2E09E0709F441C0893A924009F021CF36
:1007E0008091C801833309F41CCF88E791E00E940F
:1007F000C4012092C80114C0823123E0920799F00D
:100800008435934009F00DCF8091C801803309F4FD
:1008100008CF84EB91E00E94C40140E34093C801FB
:10082000C093F601FECE8091C801813309F4F9CE60
:1008300080EA91E00E94C40151E35093C801F0CFD7
:100840008091C801823309F4ECCE8CE891E00E94DB
:10085000C40182E38093C801E3CF8091C80184334F
:1008600009F4DFCE84E691E00E94C401E4E3E09362
:10087000C801D6CF8091C801853309F4D2CE80E576
:1008800091E00E94C401F5E3F093C801C9CF8091C3
:10089000C801873309F4C5CE88E291E00E94C40103
:1008A000D093C801BDCF8091C801883309F4B9CE77
:1008B00084E191E00E94C4013092C801B1CF8091DF
:1008C000C801893309F4ADCE80E091E00E94C401F3
:1008D00089E3C0CF1092FB01A6CE9B0117CF880FF2
:1008E000991F2091EF013091F001820F931FFC01BD
:1008F000808191819093CC018093CB013CCF97FB79
:10090000072E16F4009407D077FD09D00E949304B7
:1009100007FC05D03EF4909581959F4F0895709502
:1009200061957F4F0895AA1BBB1B51E107C0AA1F09
:10093000BB1FA617B70710F0A61BB70B881F991F80
:100940005A95A9F780959095BC01CD010895F8942A
:02095000FFCFD7
:100952007800FC00CC00CC00FC007C000C00CC0039
:10096200FC0078007800FC00CC00CC007C00F80091
:10097200CC00CC00FC007800FC00CC000C001C0079
:100982001800300030006000E000C0007800FC0079
:10099200C000C000F800FC00CC00CC00FC007800D5
:1009A200FC00FC00C000D800FC001C000C001C0075
:1009B200FC00F8001C003C006C00CC008C00FE0126
:1009C200FE010C000C000C00FC00FE000E000C00EE
:1009D200F800F8000C000E00FE00FC00F800FC011C
:1009E2008C010C00180030006000C000FC01FC010A
:1009F200F800F800380038003800380038003800B5
:100A0200FC00FC007800FC00CC00CC00CC00CC0048
:100A1200CC00CC00FC007800200002FFFFFFFF00AA
:107E0000112484B714BE81FFF0D085E080938100F7
:107E100082E08093C00088E18093C10086E0809377
:107E2000C20080E18093C4008EE0C9D0259A86E02C
:107E300020E33CEF91E0309385002093840096BBD3
:107E4000B09BFECF1D9AA8958150A9F7CC24DD24C4
:107E500088248394B5E0AB2EA1E19A2EF3E0BF2EE7
:107E6000A2D0813461F49FD0082FAFD0023811F036
:107E7000013811F484E001C083E08DD089C08234E0
:107E800011F484E103C0853419F485E0A6D080C0E4
:107E9000853579F488D0E82EFF2485D0082F10E0AE
:107EA000102F00270E291F29000F111F8ED06801E7
:107EB0006FC0863521F484E090D080E0DECF843638
:107EC00009F040C070D06FD0082F6DD080E0C81688
:107ED00080E7D80618F4F601B7BEE895C0E0D1E017
:107EE00062D089930C17E1F7F0E0CF16F0E7DF06D8
:107EF00018F0F601B7BEE89568D007B600FCFDCFD4
:107F0000A601A0E0B1E02C9130E011968C91119780
:107F100090E0982F8827822B932B1296FA010C0160
:107F200087BEE89511244E5F5F4FF1E0A038BF0790
:107F300051F7F601A7BEE89507B600FCFDCF97BE46
:107F4000E89526C08437B1F42ED02DD0F82E2BD052
:107F50003CD0F601EF2C8F010F5F1F4F84911BD097
:107F6000EA94F801C1F70894C11CD11CFA94CF0C13
:107F7000D11C0EC0853739F428D08EE10CD085E9AC
:107F80000AD08FE07ACF813511F488E018D01DD067
:107F900080E101D065CF982F8091C00085FFFCCF94
:107FA0009093C60008958091C00087FFFCCF809118
:107FB000C00084FD01C0A8958091C6000895E0E648
:107FC000F0E098E1908380830895EDDF803219F02E
:107FD00088E0F5DFFFCF84E1DECF1F93182FE3DFCA
:107FE0001150E9F7F2DF1F91089580E0E8DFEE27F6
:047FF000FF270994CA
:027FFE00040479
:0400000300007E007B
:00000001FF
