:100000000C945C000C9479000C9479000C947900A9
:100010000C9479000C9479000C9479000C9479007C
:100020000C9479000C9479000C9479000C9479006C
:100030000C9479000C9479000C9479000C9479005C
:100040000C9494010C9479000C9479000C94790030
:100050000C9479000C9479000C9479000C9479003C
:100060000C9479000C947900000000080002010053
:100070000003040700000000000000000000000072
:10008000250028002B0000000000240027002A0083
:10009000040404040404040402020202020203032E
:1000A0000303030301020408102040800102040836
:1000B000102001020408102011241FBECFEFD8E049
:1000C000DEBFCDBF11E0A0E0B1E0E4E5F7E002C0A3
:1000D00005900D92A033B107D9F721E0A0E3B1E07C
:1000E00001C01D92AB35B207E1F70E94DE010C940E
:1000F000A8030C94000090E0FC01EC55FF4F249104
:1001000080579F4FFC018491882399F090E0880FDD
:10011000991FFC01EA57FF4FA591B491FC01E458E7
:10012000FF4F859194918FB7F894EC91E22BEC936B
:100130008FBF089590E0FC01E859FF4F2491FC0126
:10014000EC55FF4F3491FC01E057FF4FE491EE2353
:10015000C9F0222339F0233001F1A8F4213019F13C
:10016000223029F1F0E0EE0FFF1FE458FF4FA59178
:10017000B4918FB7F894EC91611126C030953E236D
:100180003C938FBF08952730A9F02830C9F0243060
:1001900049F7809180008F7D03C0809180008F7728
:1001A00080938000DFCF84B58F7784BDDBCF84B5AB
:1001B0008F7DFBCF8091B0008F778093B000D2CF3E
:1001C0008091B0008F7DF9CF3E2BDACF3FB7F89406
:1001D0008091310190913201A0913301B0913401AD
:1001E00026B5A89B05C02F3F19F00196A11DB11D92
:1001F0003FBFBA2FA92F982F8827BC01CD01620FCE
:10020000711D811D911D42E0660F771F881F991F88
:100210004A95D1F708958F929F92AF92BF92CF9255
:10022000DF92EF92FF924B015C010E94E6006B01AE
:100230007C010E94E6006C197D098E099F09683EC9
:10024000734081059105A8F321E0821A9108A10865
:10025000B10888EEC80E83E0D81EE11CF11C8114A1
:100260009104A104B10429F7FF90EF90DF90CF90A3
:10027000BF90AF909F908F900895CF93C82F682F15
:10028000617080E10E949A006C2F627081E10E948F
:100290009A006C2F647082E10E949A006C2F687043
:1002A00083E1CF910C949A000F931F93CF93DF9328
:1002B000EC01682F617080E00E949A006C2F6270E0
:1002C00081E00E949A006C2F647082E00E949A0084
:1002D0006C2F687083E00E949A006C2F607184E03C
:1002E0000E949A006C2F607285E00E949A006C2F29
:1002F000607486E00E949A006C2F607887E00E940C
:100300009A008E01D7FF02C001501F4F612F61700C
:1003100088E00E949A00612F627089E0DF91CF919E
:100320001F910F910C949A001F920F920FB60F928B
:1003300011242F933F938F939F93AF93BF938091FB
:10034000350190913601A0913701B091380130917B
:10035000300123E0230F2D3758F50196A11DB11D63
:10036000209330018093350190933601A09337019B
:10037000B09338018091310190913201A091330105
:10038000B09134010196A11DB11D8093310190936C
:100390003201A0933301B0933401BF91AF919F918B
:1003A0008F913F912F910F900FBE0F901F90189536
:1003B00026E8230F0296A11DB11DD2CF789484B5F3
:1003C000826084BD84B5816084BD85B5826085BD51
:1003D00085B5816085BD80916E00816080936E00DF
:1003E00010928100809181008260809381008091D1
:1003F0008100816080938100809180008160809382
:1004000080008091B10084608093B1008091B00041
:1004100081608093B00080917A00846080937A003C
:1004200080917A00826080937A0080917A00816066
:1004300080937A0080917A00806880937A0010928D
:10044000C100C0E08C2F0E947B00CF5FC630D1F787
:1004500086E00E947B0087E00E947B0088E00E948B
:100460007B0089E00E947B0080E10E947B0081E1AB
:100470000E947B0082E10E947B0083E10E947B005E
:1004800007E011E0D0E0C0E04AE0E42EF12CF801F2
:10049000819191918F010E9454018FB7F8948090BF
:1004A000350190903601A0903701B09038018FBF90
:1004B0002FB7F8948091350190913601A0913701C2
:1004C000B09138012FBF88199909AA09BB09893C45
:1004D0009105A105B10580F4CE010E943D0161E0C6
:1004E00070E080E090E00E940B01CE010196B70120
:1004F0000E948003EC01DCCFF1E00B311F0739F6DD
:100500000AE010E0C0913901D0913A01CE010E9479
:100510003D018FEF93E00E94540161E08FE00E9463
:100520009A0060E08FE00E949A002196D0933A01F1
:10053000C093390168EC70E080E090E00E940B010C
:1005400001501109F9F690E080E00E9454011092E8
:100550003A01109239010AE010E090E0892E90E013
:10056000992EC0E0D2E0EE24EA94FE2CCC24C39471
:1005700032E0D32E8FB7F894409035015090360179
:1005800060903701709038018FBF409257015092B0
:1005900058016092590170925A01809153019091D3
:1005A0005401A0915501B091560184159505A605F9
:1005B000B70509F1A0903901B0903A01C5010E9438
:1005C0003D01F501EE0FFF1FE55CFE4F808191813B
:1005D0000E945401C5010196B8010E9480039093C6
:1005E0003A01809339014092530150925401609234
:1005F00055017092560180910601882309F46BC061
:1006000080914F0190915001A0915101B091520100
:10061000A3019201281B390B4A0B5B0BDA01C901BC
:1006200084369105A105B10508F455C040924F01EB
:1006300050925001609251017092520180910401D8
:1006400090910501019641F4109205011092040168
:10065000D0920301C0920201409102015091030126
:100660002091000130910101B90137FF02C06F5F95
:100670007F4F7595679542175307A4F18091040148
:1006800090910501FC01EE0FFF1FE55CFE4FA0817C
:10069000B181A20FB31FB183A083421B530B5093B0
:1006A0000301409302017093010160930001452B07
:1006B00091F4019690930501809304018A3091058D
:1006C0009CF010920601F0920501E0920401D09393
:1006D0000101C09300018114910409F44BCF0E94E1
:1006E000000048CF9B01C0CF880F991FFC01E55E39
:1006F000FE4F808191819093030180930201E7CFA7
:1007000097FB072E16F4009407D077FD09D00E94BE
:10071000940307FC05D03EF4909581959F4F089572
:10072000709561957F4F0895AA1BBB1B51E107C0CF
:10073000AA1FBB1FA617B70710F0A61BB70B881F71
:10074000991F5A95A9F780959095BC01CD01089500
:04075000F894FFCF4B
:100754000002FFFFFFFF01000200018000400020B3
:10076400001000080004000200010001020102015F
:10077400020102010201020102010201020102005E
:00000001FF
