:100000000C945E000C9486000C9486000C94860080
:100010000C9486000C9486000C9486000C94860048
:100020000C9486000C9486000C9486000C94860038
:100030000C9486000C9486000C9486000C94860028
:100040000C9401020C9486000C9486000C9486009B
:100050000C9486000C9486000C9486000C94860008
:100060000C9486000C948600000000080002010039
:100070000003040700000000000000000000000072
:10008000250028002B0000000000240027002A0083
:10009000040404040404040402020202020203032E
:1000A0000303030301020408102040800102040836
:1000B0001020010204081020DE05EA0511241FBEED
:1000C000CFEFD8E0DEBFCDBF22E0A8EFB1E001C0A6
:1000D0001D92A234B207E1F711E0A0E0B1E0EEEB2F
:1000E000F0E102C005900D92A83FB107D9F710E0EA
:1000F000CDE5D0E004C02197FE010E945A06CC3520
:10010000D107C9F70E9494020C9452080C94000085
:1001100090E0FC01EC55FF4F249180579F4FFC016C
:100120008491882399F090E0880F991FFC01EA5789
:10013000FF4FA591B491FC01E458FF4F8591949134
:100140008FB7F894EC91E22BEC938FBF089580E485
:1001500080937C0080917A00806480937A00809103
:100160007A0086FDFCCF8091780090917900089507
:10017000FC01248135816217730720F4808191810D
:10018000009729F41092FD018DEF91E00895860FFC
:10019000971F089590E0FC01E859FF4F2491FC015E
:1001A000EC55FF4F3491FC01E057FF4FE491EE23F3
:1001B000C9F0222339F0233001F1A8F4213019F1DC
:1001C000223029F1F0E0EE0FFF1FE458FF4FA59118
:1001D000B4918FB7F894EC91611126C030953E230D
:1001E0003C938FBF08952730A9F02830C9F0243000
:1001F00049F7809180008F7D03C0809180008F77C8
:1002000080938000DFCF84B58F7784BDDBCF84B54A
:100210008F7DFBCF8091B0008F778093B000D2CFDD
:100220008091B0008F7DF9CF3E2BDACF3FB7F894A5
:100230008091F9019091FA01A091FB01B091FC012C
:1002400026B5A89B05C02F3F19F00196A11DB11D31
:100250003FBFBA2FA92F982F8827BC01CD01620F6D
:10026000711D811D911D42E0660F771F881F991F28
:100270004A95D1F708958F929F92AF92BF92CF92F5
:10028000DF92EF92FF920E9416014B015C0188EC15
:10029000C82ED12CE12CF12C0E9416016819790985
:1002A0008A099B09683E734081059105A8F321E006
:1002B000C21AD108E108F10888EE880E83E0981E82
:1002C000A11CB11CC114D104E104F10429F7FF9071
:1002D000EF90DF90CF90BF90AF909F908F90089558
:1002E00061E08FE00E94CA0060E08FE00C94CA00D9
:1002F000CF93C82F682F617080E10E94CA006C2FD5
:10030000627081E10E94CA006C2F647082E10E94D9
:10031000CA006C2F687083E1CF910C94CA000F93D0
:100320001F93CF93DF93EC01682F617080E00E94F0
:10033000CA006C2F627081E00E94CA006C2F64704A
:1003400082E00E94CA006C2F687083E00E94CA009D
:100350006C2F607184E00E94CA006C2F607285E08F
:100360000E94CA006C2F607486E00E94CA006C2F45
:10037000607887E00E94CA008E01D7FF02C001505A
:100380001F4F612F617088E00E94CA00612F627068
:1003900089E0DF91CF911F910F910C94CA00CF9308
:1003A000DF9390E080E00E948F01D0E0C0E0CE01BA
:1003B0000E9478010E9470012196CA30D105B9F7D8
:1003C000DF91CF910895CF93DF93EC01EAE1F2E062
:1003D0001192119282E0EE32F807D1F70E94CF011C
:1003E000D0932F02C0932E028FEF9FEF9093E501E1
:1003F0008093E4011092190210921802DF91CF91BC
:1004000008951F920F920FB60F9211242F933F93CE
:100410008F939F93AF93BF938091FE019091FF01C3
:10042000A0910002B09101023091F80123E0230F66
:100430002D3758F50196A11DB11D2093F801809329
:10044000FE019093FF01A0930002B09301028091FE
:10045000F9019091FA01A091FB01B091FC01019684
:10046000A11DB11D8093F9019093FA01A093FB01A6
:10047000B093FC01BF91AF919F918F913F912F91CC
:100480000F900FBE0F901F90189526E8230F02962D
:10049000A11DB11DD2CFEF92FF920F931F93CF9367
:1004A000DF93EC017B01198218821B821A821D8264
:1004B0001C82FB0101900020E9F731978F01061B98
:1004C000170BB8016F5F7F4F90E080E00E948507B7
:1004D0000097B9F0998388831B830A832C813D811F
:1004E000232B11F4FC0110821D830C83B70188813A
:1004F0009981DF91CF911F910F91FF90EF900C9414
:100500004B0888819981009711F00E94FC0619829E
:1005100018821D821C821B821A82DF91CF911F914B
:100520000F91FF90EF900895789484B5826084BD18
:1005300084B5816084BD85B5826085BD85B58160E7
:1005400085BD80916E00816080936E001092810065
:100550008091810082608093810080918100816020
:1005600080938100809180008160809380008091E1
:10057000B10084608093B1008091B000816080936D
:10058000B00080917A00846080937A0080917A0034
:10059000826080937A0080917A00816080937A00F3
:1005A00080917A00806880937A001092C100C0E048
:1005B0008C2F0E948800CF5FCA30D1F78FE00E9455
:1005C000880080E10E94880081E10E94880082E129
:1005D0000E94880083E10E9488003AE0E32EF12C1B
:1005E000C0E0D2E0CE010E948F0110E000E0C8011F
:1005F0000E9478010E9470010F5F1F4F0A301105A1
:10060000B1F70E943B01D7FD2196D595C79521E012
:10061000E21AF10839F70E94CF010AE010E0C09118
:100620001802D0911902CE010E9478018FEF93E059
:100630000E948F010E9470010E943B01CE010E9426
:10064000780190E080E00E948F010E947001219665
:10065000D0931902C09318020150110901F790E0DC
:1006600080E00E948F0110921902109218021EE27F
:10067000812E12E0912E0AE0E02EF12C80E0282E4F
:1006800080E0382EC1E000E012E0CC24CA94DC2CDB
:100690008FB7F8944090FE015090FF0160900002E7
:1006A000709001028FBF40923A0250923B026092DA
:1006B0003C0270923D020E94A700892B09F469C296
:1006C0008091390281110BC10E94A7002091E6019F
:1006D000893532E0930709F47EC05CF58F3F51E025
:1006E000950709F48CC0ACF4863E914009F490C0A3
:1006F000C0933902D091E6018091DD01882309F48D
:1007000090C0D13309F097C01092DD01C09304026C
:1007100092C08A3132E0930709F468C0883392406E
:1007200039F7263329F38CE391E00E94E30186E355
:1007300025C08A3D52E09507C1F18CF48F37F2E075
:100740009F07F1F1893A924099F6233389F288E7BD
:1007500091E00E94E30123E32093E60120C082316F
:1007600043E0940771F08435934011F6203309F487
:10077000BFCF88EC91E00E94E30180E38093E60123
:100780000EC0213309F4B4CF8091DF01882351F0EA
:1007900084EB91E00E94E301E1E3E093E601C09382
:1007A0003402A6CF80EA91E0F5CF223309F4A0CF3E
:1007B0008CE891E00E94E301F2E3F093E601EFCFD1
:1007C000243309F495CF84E691E00E94E30134E3F9
:1007D0003093E601E4CF253309F48ACF80E591E038
:1007E0000E94E30145E34093E601D9CF273309F4A2
:1007F0007FCF88E291E00E94E30187E3BFCF2833F7
:1008000009F476CF84E191E00E94E30188E3B6CF5A
:10081000293309F46DCF80E091E00E94E30189E380
:10082000ADCF80910402882339F1D23301F5C09312
:1008300003021092040280911702811150C080912E
:10084000DF01882309F445C18091DE018823A1F1ED
:1008500070E060E081E192E00E94B800FC018081DC
:10086000D8133DC01092DE01C093100238C0D133BE
:1008700011F3C093DD01DFCF80910302882351F093
:10088000D13329F4C093020210920302D4CFC09353
:10089000DD01FACF80910202882369F2D23349F454
:1008A000C0931702C093DD01C093DE01C093DC0149
:1008B000C2CFD133F1F62ACF80911002882309F4F8
:1008C000CFC061E070E081E192E00E94B800FC01DD
:1008D0008081D813B7C0C0930F021092100280918C
:1008E000350290913602A0913702B09138028415FA
:1008F0009505A605B70519F1A0901802B090190248
:10090000F501EE0FFF1FE65EFD4F808191810E9491
:100910008F01C5010E9478010E947001C5010196F6
:10092000B7010E94320690931902809318024092F8
:1009300035025092360260923702709238028091EE
:100940003402882309F477C08091300290913102FB
:10095000A0913202B0913302A3019201281B390BFE
:100960004A0B5B0BDA01C90184369105A105B1057B
:1009700008F461C04092300250923102609232021B
:10098000709233028091E4019091E501019691F417
:100990001092E5011092E401E0912E02F0912F02F5
:1009A000808191819093E3018093E2011093E101B2
:1009B0000093E0014091E2015091E3012091E001B8
:1009C0003091E101B90137FF02C06F5F7F4F75952C
:1009D0006795421753070CF4DFC08091E4019091B2
:1009E000E501FC01EE0FFF1FE65EFD4FA081B18126
:1009F000A20FB31FB183A083421B530B5093E3019B
:100A00004093E2017093E1016093E001452B99F47A
:100A100001969093E5018093E4018A3091050CF4EE
:100A2000BDC010923402D092E501C092E40110934F
:100A3000E1010093E0012114310409F429CE0E9460
:100A4000000026CE70E060E081E192E00E94B800F4
:100A5000FC018081D81709F407CFC093DE013FCF96
:100A600080910F02882379F062E070E081E192E0EA
:100A70000E94B800FC018081D813E4CFC0930E021D
:100A800010920F022CCF80910E02882309F427CFF9
:100A900063E070E081E192E00E94B800FC01808197
:100AA000D813D0CF1092DF010E94CF01EAE1F2E02B
:100AB000119211928E169F06D9F710923402F0E22D
:100AC000F093E601C093DD01C093DE01C093DC0129
:100AD00006CF8091DC01882379F070E060E088E047
:100AE00092E00E94B800FC018081D813F8CE1092E9
:100AF000DC01C0930702F3CE809107028823D1F076
:100B000061E070E088E092E00E94B800FC01808122
:100B1000D81305C0C093060210920702E0CE70E021
:100B200060E088E092E00E94B800FC018081D81368
:100B3000CDCFDFCF80910602882379F062E070E0AC
:100B400088E092E00E94B800FC018081D813E7CFD2
:100B5000C093050210920602C2CE8091050288233E
:100B600009F4BDCE63E070E088E092E00E94B80036
:100B7000FC018081D813D3CFC093DF010E94CF0145
:100B8000EAE1F2E01192119222E0EE32F207D1F79F
:100B900094CF10923902A3CE9B0114CF880F991FD6
:100BA00020912E0230912F02820F931FFC01808131
:100BB00091819093E3018093E20139CF6DEE71E072
:100BC00081E192E00E944B0262EF71E088E092E0E6
:100BD0000C944B028091080290910902009711F049
:100BE0000E94FC068091110290911202009711F070
:100BF0000C94FC0608952F923F924F925F926F9251
:100C00007F928F929F92AF92BF92CF92DF92EF929C
:100C1000FF920F931F93CF93DF93CDB7DEB7CA1B1D
:100C2000DB0B0FB6F894DEBF0FBECDBF09942A8848
:100C3000398848885F846E847D848C849B84AA84F0
:100C4000B984C884DF80EE80FD800C811B81AA817D
:100C5000B981CE0FD11D0FB6F894DEBF0FBECDBF48
:100C6000ED01089597FB072E16F4009407D077FD49
:100C700009D00E94460607FC05D03EF49095819568
:100C80009F4F0895709561957F4F0895AA1BBB1BD8
:100C900051E107C0AA1FBB1FA617B70710F0A61B7C
:100CA000B70B881F991F5A95A9F780959095BC019D
:100CB000CD010895EE0FFF1F0590F491E02D0994EA
:100CC0000F931F93CF93DF938230910510F482E04E
:100CD00090E0E0914002F091410230E020E0B0E08D
:100CE000A0E0309799F42115310509F44AC0281B7A
:100CF000390B24303105D8F58A819B816115710546
:100D000089F1FB0193838283FE0111C040815181EF
:100D10000281138148175907E0F04817590799F4E1
:100D2000109761F012960C93129713961C933296BB
:100D3000CF01DF91CF911F910F9108950093400251
:100D400010934102F4CF2115310551F0421753079A
:100D500038F0A901DB019A01BD01DF01F801C1CF23
:100D6000EF01F9CF9093410280934002CDCFFE0175
:100D7000E20FF31F81939193225031093983288325
:100D8000D7CF20913E0230913F02232B41F4209196
:100D9000E9013091EA0130933F0220933E02209115
:100DA000E7013091E8012115310541F42DB73EB737
:100DB0004091EB015091EC01241B350BE0913E0278
:100DC000F0913F02E217F307A0F42E1B3F0B281708
:100DD000390778F0AC014E5F5F4F2417350748F0B4
:100DE0004E0F5F1F50933F0240933E0281939193B9
:100DF0009FCFF0E0E0E09CCFCF93DF930097E9F046
:100E0000FC01329713821282A0914002B0914102FC
:100E1000ED0130E020E01097A1F420813181820FB4
:100E2000931F20913E0230913F022817390709F0A5
:100E300061C0F0933F02E0933E02DF91CF910895AD
:100E4000EA01CE17DF07E8F54A815B819E01411573
:100E50005105B1F7E901FB83EA8349915991C40F28
:100E6000D51FEC17FD0761F4808191810296840FF4
:100E7000951FE90199838883828193819B838A836B
:100E8000F0E0E0E012968D919C9113970097B9F5F0
:100E90002D913C911197CD010296820F931F2091C5
:100EA0003E0230913F022817390739F6309751F545
:100EB0001092410210924002B0933F02A0933E0272
:100EC000BCCFD383C28340815181840F951FC81743
:100ED000D90761F44E5F5F4F88819981480F591F90
:100EE000518340838A819B819383828321153105BD
:100EF00009F0B0CFF0934102E09340029ECFFD0194
:100F0000DC01C0CF13821282D7CFB0E0A0E0EBE8C3
:100F1000F7E00C94FD058C01009751F4CB010E9481
:100F200060068C01C801CDB7DEB7E0E10C9419066C
:100F3000FC01E60FF71F9C0122503109E217F3076D
:100F400008F49DC0D901CD91DC911197C617D70740
:100F500098F0C530D10530F3CE0104978617970776
:100F600008F3C61BD70B2297C193D1936D937C9343
:100F7000CF010E94FC06D6CF5B01AC1ABD0A4C0122
:100F80008C0E9D1EA0914002B0914102512C412C2B
:100F9000F12CE12C109731F580913E0290913F02A7
:100FA0008815990509F05CC04616570608F058C028
:100FB0008091E7019091E801009741F48DB79EB7C9
:100FC0004091EB015091EC01841B950BE817F90758
:100FD00008F055C0F0933F02E0933E02F90171839F
:100FE0006083A0CF8D919C91119712966C9012976F
:100FF00013967C901397A815B90559F56C0142E03A
:10100000C40ED11CCA14DB0420F1AC014A195B09DF
:10101000DA011296159780F06282738251834083C1
:10102000D9016D937C93E114F10471F0D70113960B
:10103000FC93EE93129776CF22968C0F9D1FF901A9
:1010400091838083F301EFCFF0934102E09340025C
:1010500069CF4816590608F42C017D01D3019ACFB7
:10106000CB010E9460067C01009749F0AE01B801F7
:101070000E944208C8010E94FC06870153CF10E07D
:1010800000E050CFFB01DC0102C001900D92415005
:101090005040D8F70895FB01DC0101900D9200202B
:1010A000E1F7089510E0CDE5D0E004C0FE010E9414
:0E10B0005A062196CE35D107C9F7F894FFCF26
:1010BE007800FC00CC00CC00FC007C000C00CC00C6
:1010CE00FC0078007800FC00CC00CC007C00F8001E
:1010DE00CC00CC00FC007800FC00CC000C001C0006
:1010EE001800300030006000E000C0007800FC0006
:1010FE00C000C000F800FC00CC00CC00FC00780062
:10110E00FC00FC00C000D800FC001C000C001C0001
:10111E00FC00F8001C003C006C00CC008C00FE01B2
:10112E00FE010C000C000C00FC00FE000E000C007A
:10113E00F800F8000C000E00FE00FC00F800FC01A8
:10114E008C010C00180030006000C000FC01FC0196
:10115E00000001000000010000000100000001007D
:10116E0000000100F800F8003800380038003800A0
:10117E0038003800FC00FC007800FC00CC00CC00ED
:10118E00CC00CC00CC00CC00FC00780001010101A9
:10119E000002FFFFFFFF20000042028000313233C9
:0811AE0034003433323100003B
:00000001FF
