:100000000C945E000C9486000C9486000C94860080
:100010000C9486000C9486000C9486000C94860048
:100020000C9486000C9486000C9486000C94860038
:100030000C9486000C9486000C9486000C94860028
:100040000C94DB020C9486000C9486000C948600C1
:100050000C9486000C9486000C9486000C94860008
:100060000C9486000C948600000000080002010039
:100070000003040700000000000000000000000072
:10008000250028002B0000000000240027002A0083
:10009000040404040404040402020202020203032E
:1000A0000303030301020408102040800102040836
:1000B0001020010204081020C007D20711241FBE1F
:1000C000CFEFD8E0DEBFCDBF22E0ACEAB2E001C0A6
:1000D0001D92AE3FB207E1F712E0A0E0B1E0E4E824
:1000E000F4E102C005900D92AC3AB107D9F710E0E7
:1000F000CDE5D0E004C02197FE010E943D08CC353B
:10010000D107C9F70E9436030C94350A0C940000FD
:1001100090E0FC01EC55FF4F249180579F4FFC016C
:100120008491882399F090E0880F991FFC01EA5789
:10013000FF4FA591B491FC01E458FF4F8591949134
:100140008FB7F894EC91E22BEC938FBF089580E485
:1001500080937C0080917A00806480937A00809103
:100160007A0086FDFCCF8091780090917900089507
:100170000895FC01248135816217730720F4808182
:100180009181009729F41092B10281EB92E00895D9
:10019000860F971F089590E0FC01E859FF4F2491C6
:1001A000FC01EC55FF4F3491FC01E057FF4FE49107
:1001B000EE23C9F0222339F0233001F1A8F42130D5
:1001C00019F1223029F1F0E0EE0FFF1FE458FF4F44
:1001D000A591B4918FB7F894EC91611126C0309538
:1001E0003E233C938FBF08952730A9F02830C9F0F3
:1001F000243049F7809180008F7D03C0809180007A
:100200008F7780938000DFCF84B58F7784BDDBCF7D
:1002100084B58F7DFBCF8091B0008F778093B00045
:10022000D2CF8091B0008F7DF9CF3E2BDACF3FB790
:10023000F8948091AD029091AE02A091AF02B0917E
:10024000B00226B5A89B05C02F3F19F00196A11D4D
:10025000B11D3FBFBA2FA92F982F8827BC01CD0110
:10026000620F711D811D911D42E0660F771F881F6F
:10027000991F4A95D1F708958F929F92AF92BF929E
:10028000CF92DF92EF92FF920E9417014B015C0127
:1002900088ECC82ED12CE12CF12C0E941701681992
:1002A00079098A099B09683E734081059105A8F385
:1002B00021E0C21AD108E108F10888EE880E83E037
:1002C000981EA11CB11CC114D104E104F10429F74A
:1002D000FF90EF90DF90CF90BF90AF909F908F9066
:1002E000089561E08FE00E94CB0060E08FE00C9405
:1002F000CB00CF93C82F682F617080E10E94CB00A4
:100300006C2F627081E10E94CB006C2F647082E1DF
:100310000E94CB006C2F687083E1CF910C94CB00CE
:100320000F931F93CF93DF93EC01682F617080E0F0
:100330000E94CB006C2F627081E00E94CB006C2F7A
:10034000647082E00E94CB006C2F687083E00E9492
:10035000CB006C2F607184E00E94CB006C2F607228
:1003600085E00E94CB006C2F607486E00E94CB0079
:100370006C2F607887E00E94CB008E01D7FF02C00F
:1003800001501F4F612F617088E00E94CB00612FE8
:10039000627089E0DF91CF911F910F910C94CB0097
:1003A000CF93DF9390E080E00E949001D0E0C0E026
:1003B000CE010E9479010E9471012196CA30D105B7
:1003C000B9F7DF91CF910895CF93DF93EC01E5ED7D
:1003D000F2E01192119282E0E93EF807D1F70E9413
:1003E000D001D093EA02C093E9028FEF9FEF909380
:1003F0009902809398021092D4021092D302DF9156
:10040000CF910895CF93DF93EC0188819981009774
:1004100011F00E94DF08198218821D821C821B8243
:100420001A82DF91CF910895FC018081918100971C
:1004300011F00C94DF0808950F931F93CF93DF936F
:10044000EC0188819981009759F02A813B81261718
:10045000370730F081E0DF91CF911F910F91089520
:100460008B016F5F7F4F0E946809009759F0998355
:1004700088831B830A832C813D81232B59F7FC0140
:100480001082E8CF80E0E7CFEF92FF920F931F93A7
:10049000CF93DF936115710541F480E0DF91CF9137
:1004A0001F910F91FF90EF90089541155105B1F004
:1004B0007B01EC010C811D81040F151FB8010E9406
:1004C0001C02882351F3288139818C819D81B701D9
:1004D000820F931F0E942E0A1D830C8381E0DECFC2
:1004E000CF93DF93EC01FB014481558160817181E1
:1004F0000E944402811103C0CE010E940202CE017B
:10050000DF91CF910895EF92FF920F931F93CF93B6
:10051000DF93EC017B018A01BA010E941C02811168
:100520000BC0CE010E940202CE01DF91CF911F913C
:100530000F91FF90EF9008951D830C83B701888180
:1005400099810E942E0AF0CFCF93DF93EC01FB013B
:100550008617970749F0608171816115710541F037
:10056000448155810E948302CE01DF91CF9108958D
:100570000E940202F9CFCF93DF9300D0CDB7DEB750
:10058000FC01118210821382128215821482698307
:100590001A82BE016F5F7F4FFB0101900020E9F7D7
:1005A0003197AF01461B570B0E9483020F900F90AB
:1005B000DF91CF9108951F920F920FB60F921124E1
:1005C0002F933F938F939F93AF93BF938091B202EA
:1005D0009091B302A091B402B091B5023091AC02F7
:1005E00023E0230F2D3758F50196A11DB11D20934F
:1005F000AC028093B2029093B302A093B402B09382
:10060000B5028091AD029091AE02A091AF02B0917F
:10061000B0020196A11DB11D8093AD029093AE0270
:10062000A093AF02B093B002BF91AF919F918F9111
:100630003F912F910F900FBE0F901F90189526E8B5
:10064000230F0296A11DB11DD2CFFC011182108291
:100650001382128215821482FB0101900020E9F7B7
:100660003197AF01461B570B0C948302CF93DF9356
:10067000CDB7DEB7AA970FB6F894DEBF0FBECDBFD9
:10068000789484B5826084BD84B5816084BD85B56D
:10069000826085BD85B5816085BD80916E00816079
:1006A00080936E001092810080918100826080931F
:1006B0008100809181008160809381008091800021
:1006C0008160809380008091B10084608093B1004C
:1006D0008091B00081608093B00080917A00846046
:1006E00080937A0080917A00826080937A00809172
:1006F0007A00816080937A0080917A00806880938C
:100700007A001092C10010E0812F0E9488001F5FC4
:100710001A30D1F78FE00E94880080E10E948800A3
:1007200081E10E94880082E10E94880083E10E94AA
:1007300088006AE0C62ED12C00E012E0C8010E94B9
:100740009001F12CE12CC7010E9479010E947101F6
:100750002FEFE21AF20A3AE0E316F104A1F70E9441
:100760003C0117FF02C00F5F1F4F1595079541E031
:10077000C41AD10819F70E94D0014AE0E42EF12CE6
:100780000091D3021091D402C8010E9479018FEF29
:1007900093E00E9490010E9471010E943C01C801F7
:1007A0000E94790190E080E00E9490010E94710116
:1007B0000F5F1F4F1093D4020093D30251E0E51A4C
:1007C000F108F1F690E080E00E9490011092D402CE
:1007D0001092D30211E089EE682E82E0782E9AE022
:1007E000C92ED12CE12C22E0F22EAA24AA94BA2CF4
:1007F0002FB7F8948091B2029091B302A091B40205
:10080000B091B5022FBF8093F6029093F702A093A8
:10081000F802B093F9020E94A700892B09F49BC348
:100820008091F502811149C10E94A70020919A028E
:100830008935E2E09E0709F49FC0A4F58F3F31E0BF
:10084000930709F4BCC0CCF4863E914009F4C7C0BC
:100850001093F50200919A028091F402811190C2E6
:1008600080919102882309F4CAC0013309F0D1C0F4
:10087000109291021093B802CCC08A31E2E09E0738
:1008800009F48DC08833924019F7263309F380911B
:100890009302882309F480C08CE891E00E94E4016F
:1008A00086E32FC08A3D32E0930709F442C0ACF4DE
:1008B0008F3752E0950709F44FC0893A924041F6CC
:1008C000233331F280919302882309F442C084E0FB
:1008D00092E00E94E40183E314C08231F3E09F07B9
:1008E000C1F08435934009F0B3CF203309F4B0CF81
:1008F00080919302882351F08CE792E00E94E401FA
:1009000080E380939A021093EF02A2CF88E692E0F0
:10091000F5CF213309F49CCF80919302882331F0E5
:1009200084E592E00E94E40181E3EBCF80E492E071
:10093000F9CF223309F48CCF80919302882331F0D0
:100940008CE292E00E94E40182E3DBCF88E192E056
:10095000F9CF80EF91E0BDCF243309F479CF8091B6
:100960009302882331F08CED91E00E94E40184E34E
:10097000C8CF88EC91E0F9CF253309F469CF809195
:100980009302882331F084EB91E00E94E40185E337
:10099000B8CF80EA91E0F9CF88E791E07FCF2733A5
:1009A00009F456CF80919302882331F084E691E0D8
:1009B0000E94E40187E3A5CF80E591E0F9CF2833D9
:1009C00009F446CF80919302882331F08CE391E0C3
:1009D0000E94E40188E395CF88E291E0F9CF2933C2
:1009E00009F436CF80919302882331F084E191E0BD
:1009F0000E94E40189E385CF80E091E0F9CF809106
:100A0000B802882339F1023301F51093B70210922E
:100A1000B8028091F402811150C080919302882322
:100A200009F44EC1809192028823A1F170E060E048
:100A300085EC92E00E94B900FC01808180133DC0EA
:100A4000109292021093BE0238C0013311F310933A
:100A50009102DFCF8091B702882351F0013329F44E
:100A60001093B6021092B702D4CF10939102FACF2E
:100A70008091B602882369F2023349F41093F4029C
:100A8000109391021093920210939002C2CF0133FF
:100A9000F1F6F0CE8091BE02882309F4D8C061E05F
:100AA00070E085EC92E00E94B900FC018081801327
:100AB000C0C01093BD021092BE022090F60230908A
:100AC000F7024090F8025090F9028091F002909164
:100AD000F102A091F202B091F302281639064A06FB
:100AE0005B0619F18090D3029090D402F401EE0FCE
:100AF000FF1FEB52FD4F808191810E949001C40144
:100B00000E9479010E947101C4010196B6010E9400
:100B100015089093D4028093D3022092F002309271
:100B2000F1024092F2025092F3028091EF02882388
:100B300009F477C08091EB029091EC02A091ED0254
:100B4000B091EE02A2019101281B390B4A0B5B0BFD
:100B5000DA01C90184369105A105B10508F461C027
:100B60002092EB023092EC024092ED025092EE02A3
:100B70008091980290919902019691F410929902B5
:100B800010929802E091E902F091EA02808191814D
:100B90009093970280939602F0929502E0929402CD
:100BA00040919602509197022091940230919502C3
:100BB000B90137FF02C06F5F7F4F75956795421788
:100BC00053070CF4CBC18091980290919902FC01DB
:100BD000EE0FFF1FEB52FD4FA081B181A20FB31F9B
:100BE000B183A083421B530B50939702409396020C
:100BF0007093950260939402452B99F4019690931B
:100C00009902809398028A3091050CF4A9C1109240
:100C1000EF02B0929902A0929802F0929502E092AF
:100C2000940220E030E0232B09F4E2CD0E94000082
:100C3000D1CD70E060E085EC92E00E94B900FC014B
:100C40008081801709F4FECE1093920236CF8091F6
:100C5000BD02882379F062E070E085EC92E00E94AA
:100C6000B900FC0180818013E4CF1093BC02109284
:100C7000BD0223CF8091BC02882309F41ECF63E01C
:100C800070E085EC92E00E94B900FC018081801345
:100C9000D0CF109293020E94D001E5EDF2E01192C4
:100CA00011926E167F06D9F71092EF0280E28093C0
:100CB0009A02109391021093920210939002FDCE2B
:100CC00080919002882379F070E060E08FEB92E0F1
:100CD0000E94B900FC0180818013EFCE1092900237
:100CE0001093BB02EACE8091BB028823D1F061E071
:100CF00070E08FEB92E00E94B900FC0180818013CC
:100D000005C01093BA021092BB02D7CE70E060E02B
:100D10008FEB92E00E94B900FC0180818013CDCF5F
:100D2000DFCF8091BA02882379F062E070E08FEB28
:100D300092E00E94B900FC0180818013E7CF1093FC
:100D4000B9021092BA02B9CE8091B902882309F48F
:100D5000B4CE63E070E08FEB92E00E94B900FC013A
:100D600080818013D3CF109393020E94D001E5EDD0
:100D7000F2E01192119222E0E93EF207D1F794CF0E
:100D8000602FCE0101960E94BB024D815E81698178
:100D90007A818DEC92E00E944402CE0101960E947D
:100DA00014028091CB029091CC028330910534F4EF
:100DB00001969093CC028093CB027FCE6DEC72E0D3
:100DC00085EC92E00E94A40218A21F8E1AA219A21A
:100DD0001CA21BA26DEC72E0CE014F960E94A402F1
:100DE00070E060E0CE014F960E94B900FC01608186
:100DF000CE0101960E94BB0261E070E0CE014F96E9
:100E00000E94B900FC016081CE0107960E94BB02DE
:100E100062E070E0CE014F960E94B900FC01608153
:100E2000CE010D960E94BB0263E070E0CE014F96AA
:100E30000E94B900FC016081CE0149960E94BB026C
:100E40001C8A1B8A1E8A1D8A188E1F8ABE01675E35
:100E50007F4FCE0143960E94A402BE01635F7F4F85
:100E6000CE0143960E947002BE01695F7F4F0E94CF
:100E70007002BE016F5F7F4F0E9470021EA21DA212
:100E800018A61FA21AA619A6BC01CE0185960E941B
:100E9000A402CE0143960E941402CE0149960E94FC
:100EA0001402CE010D960E941402CE0107960E94F4
:100EB0001402CE0101960E9414028091BF0290910B
:100EC000C002009789F16DA17EA16115710551F1F4
:100ED0004091C1025091C20229A53AA54217530779
:100EE00008F10E942E0A89A59AA59093C4028093C6
:100EF000C3021AA619A6CE0185960E941402CE013D
:100F00004F960E9414021092F4021092CC0210929A
:100F1000CB0250E040E06AEA72E08DEC92E00E9481
:100F20008302CBCD0E94DF088DA19EA19093C002C9
:100F30008093BF028FA198A59093C2028093C102B3
:100F400089A59AA59093C4028093C3021EA21DA2F4
:100F500018A61FA2CECF1092F502AFCD9B0128CECE
:100F6000880F991F2091E9023091EA02820F931FA6
:100F7000FC018081918190939702809396024DCEDF
:100F800061EA72E085EC92E00E94250366EA72E075
:100F90008FEB92E00E9425036AEA72E08DEC92E00A
:100FA0000C9425038DEC92E00E9414028FEB92E0EA
:100FB0000E94140285EC92E00C9414022F923F924E
:100FC0004F925F926F927F928F929F92AF92BF9259
:100FD000CF92DF92EF92FF920F931F93CF93DF9305
:100FE000CDB7DEB7CA1BDB0B0FB6F894DEBF0FBE62
:100FF000CDBF09942A88398848885F846E847D84AF
:101000008C849B84AA84B984C884DF80EE80FD80B0
:101010000C811B81AA81B981CE0FD11D0FB6F89426
:10102000DEBF0FBECDBFED01089597FB072E16F46E
:10103000009407D077FD09D00E94290807FC05D04D
:101040003EF4909581959F4F0895709561957F4FDF
:101050000895AA1BBB1B51E107C0AA1FBB1FA617FF
:10106000B70710F0A61BB70B881F991F5A95A9F751
:1010700080959095BC01CD010895EE0FFF1F05905E
:10108000F491E02D09940F931F93CF93DF93823057
:10109000910510F482E090E0E091FC02F091FD02F5
:1010A00030E020E0B0E0A0E0309799F42115310560
:1010B00009F44AC0281B390B24303105D8F58A8140
:1010C0009B816115710589F1FB0193838283FE0188
:1010D00011C0408151810281138148175907E0F006
:1010E0004817590799F4109761F012960C931297CC
:1010F00013961C933296CF01DF91CF911F910F91E0
:1011000008950093FC021093FD02F4CF21153105E0
:1011100051F04217530738F0A901DB019A01BD01D4
:10112000DF01F801C1CFEF01F9CF9093FD02809369
:10113000FC02CDCFFE01E20FF31F81939193225069
:10114000310939832883D7CF2091FA023091FB02ED
:10115000232B41F420919D0230919E023093FB029B
:101160002093FA0220919B0230919C0221153105B7
:1011700041F42DB73EB740919F025091A002241B2D
:10118000350BE091FA02F091FB02E217F307A0F4AD
:101190002E1B3F0B2817390778F0AC014E5F5F4FCD
:1011A0002417350748F04E0F5F1F5093FB02409302
:1011B000FA02819391939FCFF0E0E0E09CCFCF9330
:1011C000DF930097E9F0FC01329713821282A0911D
:1011D000FC02B091FD02ED0130E020E01097A1F497
:1011E00020813181820F931F2091FA023091FB02FE
:1011F0002817390709F061C0F093FB02E093FA0267
:10120000DF91CF910895EA01CE17DF07E8F54A8113
:101210005B819E0141155105B1F7E901FB83EA832A
:1012200049915991C40FD51FEC17FD0761F48081D6
:1012300091810296840F951FE901998388838281A9
:1012400093819B838A83F0E0E0E012968D919C91DC
:1012500013970097B9F52D913C911197CD01029606
:10126000820F931F2091FA023091FB022817390751
:1012700039F6309751F51092FD021092FC02B093AE
:10128000FB02A093FA02BCCFD383C2834081518179
:10129000840F951FC817D90761F44E5F5F4F88818F
:1012A0009981480F591F518340838A819B81938381
:1012B00082832115310509F0B0CFF093FD02E09350
:1012C000FC029ECFFD01DC01C0CF13821282D7CF7A
:1012D000B0E0A0E0EEE6F9E00C94E0078C010097A6
:1012E00051F4CB010E9443088C01C801CDB7DEB791
:1012F000E0E10C94FC07FC01E60FF71F9C01225073
:101300003109E217F30708F49DC0D901CD91DC91B2
:101310001197C617D70798F0C530D10530F3CE0125
:1013200004978617970708F3C61BD70B2297C1931C
:10133000D1936D937C93CF010E94DF08D6CF5B01E0
:10134000AC1ABD0A4C018C0E9D1EA091FC02B091FE
:10135000FD02512C412CF12CE12C109731F580919C
:10136000FA029091FB028815990509F05CC04616B7
:10137000570608F058C080919B0290919C020097FC
:1013800041F48DB79EB740919F025091A002841BFB
:10139000950BE817F90708F055C0F093FB02E093AE
:1013A000FA02F90171836083A0CF8D919C9111970E
:1013B00012966C90129713967C901397A815B90506
:1013C00059F56C0142E0C40ED11CCA14DB0420F1B3
:1013D000AC014A195B09DA011296159780F0628216
:1013E000738251834083D9016D937C93E114F1049E
:1013F00071F0D7011396FC93EE93129776CF229655
:101400008C0F9D1FF90191838083F301EFCFF0933F
:10141000FD02E093FC0269CF4816590608F42C013E
:101420007D01D3019ACFCB010E9443087C01009734
:1014300049F0AE01B8010E94250AC8010E94DF08E8
:10144000870153CF10E000E050CFFB01DC0102C068
:1014500001900D9241505040D8F70895FB01DC01F6
:1014600001900D920020E1F7089510E0CDE5D0E065
:1014700004C0FE010E943D082196CE35D107C9F770
:04148000F894FFCF0E
:10148400FC00FE01B703B703FF03FF03FF03FF03E1
:10149400FE01FC007800FC00CC00CC00FC007C00C9
:1014A4000C00CC00FC007800300030007000FC0020
:1014B400FE03FE03FE03FE03000000007800FC00B0
:1014C400CC00CC007C00F800CC00CC00FC00780000
:1014D400FC00FE01FF03010231023303FF037B031F
:1014E4008601FC00FC00CC000C001C00180030003D
:1014F40030006000E000C000FC00FE01F703370389
:10150400FF03FF037B038703FE01FC007800FC005C
:10151400C000C000F800FC00CC00CC00FC00780047
:10152400FC0002017902850201024902490201021A
:101534000201FC00FC00FC00C000D800FC001C0000
:101544000C001C00FC00F800FC00020149024902E6
:1015540001023102790231020201FC001C003C004C
:101564006C00CC008C00FE01FE010C000C000C0091
:10157400FC0002010102490249020102FD02790252
:101584000201FC00FC00FE000E000C00F800F80054
:101594000C000E00FE00FC00FC00020101024902E6
:1015A40049020102310279020201FC00F800FC0147
:1015B4008C010C00180030006000C000FC01FC012C
:1015C400FC00FE01FF033303BB03FF0387037B031C
:1015D400FE01FC00F800F80038003800380038003C
:1015E40038003800FC00FC00FC0002010102850206
:1015F40049020102310249020201FC007800FC00A8
:10160400CC00CC00CC00CC00CC00CC00FC0078009A
:10161400010101010002FFFFFFFF200000FE028024
:0C16240000313233340034333231000026
:107E0000112484B714BE81FFF0D085E080938100F7
:107E100082E08093C00088E18093C10086E0809377
:107E2000C20080E18093C4008EE0C9D0259A86E02C
:107E300020E33CEF91E0309385002093840096BBD3
:107E4000B09BFECF1D9AA8958150A9F7CC24DD24C4
:107E500088248394B5E0AB2EA1E19A2EF3E0BF2EE7
:107E6000A2D0813461F49FD0082FAFD0023811F036
:107E7000013811F484E001C083E08DD089C08234E0
:107E800011F484E103C0853419F485E0A6D080C0E4
:107E9000853579F488D0E82EFF2485D0082F10E0AE
:107EA000102F00270E291F29000F111F8ED06801E7
:107EB0006FC0863521F484E090D080E0DECF843638
:107EC00009F040C070D06FD0082F6DD080E0C81688
:107ED00080E7D80618F4F601B7BEE895C0E0D1E017
:107EE00062D089930C17E1F7F0E0CF16F0E7DF06D8
:107EF00018F0F601B7BEE89568D007B600FCFDCFD4
:107F0000A601A0E0B1E02C9130E011968C91119780
:107F100090E0982F8827822B932B1296FA010C0160
:107F200087BEE89511244E5F5F4FF1E0A038BF0790
:107F300051F7F601A7BEE89507B600FCFDCF97BE46
:107F4000E89526C08437B1F42ED02DD0F82E2BD052
:107F50003CD0F601EF2C8F010F5F1F4F84911BD097
:107F6000EA94F801C1F70894C11CD11CFA94CF0C13
:107F7000D11C0EC0853739F428D08EE10CD085E9AC
:107F80000AD08FE07ACF813511F488E018D01DD067
:107F900080E101D065CF982F8091C00085FFFCCF94
:107FA0009093C60008958091C00087FFFCCF809118
:107FB000C00084FD01C0A8958091C6000895E0E648
:107FC000F0E098E1908380830895EDDF803219F02E
:107FD00088E0F5DFFFCF84E1DECF1F93182FE3DFCA
:107FE0001150E9F7F2DF1F91089580E0E8DFEE27F6
:047FF000FF270994CA
:027FFE00040479
:0400000300007E007B
:00000001FF
