:100000000C945C000C9479000C9479000C947900A9
:100010000C9479000C9479000C9479000C9479007C
:100020000C9479000C9479000C9479000C9479006C
:100030000C9479000C9479000C9479000C9479005C
:100040000C94C4010C9479000C9479000C94790000
:100050000C9479000C9479000C9479000C9479003C
:100060000C9479000C947900000000080002010053
:100070000003040700000000000000000000000072
:10008000250028002B0000000000240027002A0083
:10009000040404040404040402020202020203032E
:1000A0000303030301020408102040800102040836
:1000B000102001020408102011241FBECFEFD8E049
:1000C000DEBFCDBF11E0A0E0B1E0EAE4F8E002C09D
:1000D00005900D92AA31B107D9F721E0AAE1B1E06C
:1000E00001C01D92AA34B207E1F70E940E020C94DF
:1000F00023040C94000090E0FC01EC55FF4F249188
:1001000080579F4FFC018491882399F090E0880FDD
:10011000991FFC01EA57FF4FA591B491FC01E458E7
:10012000FF4F859194918FB7F894EC91E22BEC936B
:100130008FBF089580E480937C0080917A00806472
:1001400080937A0080917A0086FDFCCF80917800C0
:1001500090917900089590E0FC01E859FF4F2491B7
:10016000FC01EC55FF4F3491FC01E057FF4FE49147
:10017000EE23C9F0222339F0233001F1A8F4213015
:1001800019F1223029F1F0E0EE0FFF1FE458FF4F84
:10019000A591B4918FB7F894EC91611126C0309578
:1001A0003E233C938FBF08952730A9F02830C9F033
:1001B000243049F7809180008F7D03C080918000BA
:1001C0008F7780938000DFCF84B58F7784BDDBCFBE
:1001D00084B58F7DFBCF8091B0008F778093B00086
:1001E000D2CF8091B0008F7DF9CF3E2BDACF3FB7D1
:1001F000F89480911B0190911C01A0911D01B09178
:100200001E0126B5A89B05C02F3F19F00196A11D20
:10021000B11D3FBFBA2FA92F982F8827BC01CD0150
:10022000620F711D811D911D42E0660F771F881FAF
:10023000991F4A95D1F708958F929F92AF92BF92DE
:10024000CF92DF92EF92FF920E94F7004B015C0188
:1002500088ECC82ED12CE12CF12C0E94F7006819F3
:1002600079098A099B09683E734081059105A8F3C5
:1002700021E0C21AD108E108F10888EE880E83E077
:10028000981EA11CB11CC114D104E104F10429F78A
:10029000FF90EF90DF90CF90BF90AF909F908F90A6
:1002A000089561E08FE00E94AB0060E08FE00C9465
:1002B000AB00CF93C82F682F617080E10E94AB0024
:1002C0006C2F627081E10E94AB006C2F647082E140
:1002D0000E94AB006C2F687083E1CF910C94AB004F
:1002E0000F931F93CF93DF93EC01682F617080E031
:1002F0000E94AB006C2F627081E00E94AB006C2FFB
:10030000647082E00E94AB006C2F687083E00E94F2
:10031000AB006C2F607184E00E94AB006C2F6072A8
:1003200085E00E94AB006C2F607486E00E94AB00F9
:100330006C2F607887E00E94AB008E01D7FF02C06F
:1003400001501F4F612F617088E00E94AB00612F48
:10035000627089E0DF91CF911F910F910C94AB00F7
:10036000CF93DF9390E080E00E947001D0E0C0E086
:10037000CE010E9459010E9451012196CA30D10537
:10038000B9F7DF91CF9108951F920F920FB60F9298
:1003900011242F933F938F939F93AF93BF9380919B
:1003A0001F0190912001A0912101B0912201309173
:1003B0001A0123E0230F2D3758F50196A11DB11D19
:1003C00020931A0180931F0190932001A093210193
:1003D000B093220180911B0190911C01A0911D01FD
:1003E000B0911E010196A11DB11D80931B01909338
:1003F0001C01A0931D01B0931E01BF91AF919F916D
:100400008F913F912F910F900FBE0F901F901895D5
:1004100026E8230F0296A11DB11DD2CF789484B592
:10042000826084BD84B5816084BD85B5826085BDF0
:1004300085B5816085BD80916E00816080936E007E
:100440001092810080918100826080938100809170
:100450008100816080938100809180008160809321
:1004600080008091B10084608093B1008091B000E1
:1004700081608093B00080917A00846080937A00DC
:1004800080917A00826080937A0080917A00816006
:1004900080937A0080917A00806880937A0010922D
:1004A000C100C0E08C2F0E947B00CF5FCA30D1F723
:1004B0008FE00E947B0080E10E947B0081E10E942E
:1004C0007B0082E10E947B0083E10E947B005AE076
:1004D000E52EF12CC0E0D2E0CE010E94700110E0C8
:1004E00000E0C8010E9459010E9451010F5F1F4F97
:1004F0000A301105B1F70E941C01D7FD2196D59550
:10050000C79521E0E21AF10839F70E94B0010AE02C
:1005100010E0C0912301D0912401CE010E94590125
:100520008FEF93E00E9470010E9451010E941C0114
:10053000CE010E94590190E080E00E9470010E946B
:1005400051012196D0932401C09323010150110938
:1005500001F790E080E00E94700110922401109257
:1005600023019AE0892E912C20E0222E20E0322EC9
:10057000BB24B39430E0E32E31E0F32E0FEF1FEFF6
:10058000C0E0D2E08FB7F89440901F015090200156
:1005900060902101709022018FBF409246015092DD
:1005A000470160924801709249010E949A00892B8C
:1005B00009F40CC180914501811114C00E949A0078
:1005C000893532E0930709F4D0C00CF0D1C08F3FD9
:1005D00051E0950709F4C9C00CF0BFC0863E9140B8
:1005E00009F4C3C08091410190914201A09143015F
:1005F000B091440184159505A605B70519F1C09081
:100600002301D0902401F601EE0FFF1FEB5DFE4F9A
:10061000808191810E947001C6010E9459010E944F
:100620005101C6010196B4010E94FB03909324017D
:100630008093230140924101509242016092430114
:100640007092440180914001882309F47FC0809119
:100650003C0190913D01A0913E01B0913F01A30169
:100660009201281B390B4A0B5B0BDA01C901843656
:100670009105A105B10508F469C040923C01509272
:100680003D0160923E0170923F018091180190916E
:100690001901019691F41092190110921801E0913C
:1006A0003901F0913A0180819181909317018093F3
:1006B0001601D0931501C093140140911601509179
:1006C00017012091140130911501B90137FF02C0C3
:1006D0006F5F7F4F75956795421753070CF479C08C
:1006E0008091180190911901FC01EE0FFF1FEB5D45
:1006F000FE4FA081B181A20FB31FB183A083421B23
:10070000530B50931701409316017093150160939A
:100710001401452B99F401969093190180931801C7
:100720008A3091050CF457C0B0923B011093190127
:1007300000931801D0931501C093140180913B01DF
:10074000882321F01092400110923B0121143104C2
:1007500009F418CF0E94000015CF8A3122E09207D9
:1007600021F08833924009F03DCFB09245013ACF55
:100770008A3D42E09407C9F344F48F37E2E09E07D4
:10078000A1F3893A924089F32DCF823123E0920779
:1007900021F08435934049F325CFE5E2F1E0119251
:1007A000119241E0E933F407D1F70E94B001F092D1
:1007B0003A01E09239011093190100931801109247
:1007C000240110922301B0924001CFCF1092450135
:1007D00009CF9B017ACF880F991F20913901309161
:1007E0003A01820F931FFC01808191819093170140
:1007F000809316019FCF97FB072E16F4009407D025
:1008000077FD09D00E940F0407FC05D03EF49095B7
:1008100081959F4F0895709561957F4F0895AA1B0C
:10082000BB1B51E107C0AA1FBB1FA617B70710F0DB
:10083000A61BB70B881F991F5A95A9F7809590950D
:0A084000BC01CD010895F894FFCF2C
:10084A00F800F8003800380038003800380038005E
:0A085A00FC00FC000002FFFFFFFF9E
:00000001FF
