:100000000C945C000C9479000C9479000C947900A9
:100010000C9479000C9479000C9479000C9479007C
:100020000C9479000C9479000C9479000C9479006C
:100030000C9479000C9479000C9479000C9479005C
:100040000C949F010C9479000C9479000C94790025
:100050000C9479000C9479000C9479000C9479003C
:100060000C9479000C947900000000080002010053
:100070000003040700000000000000000000000072
:10008000250028002B0000000000240027002A0083
:10009000040404040404040402020202020203032E
:1000A0000303030301020408102040800102040836
:1000B000102001020408102011241FBECFEFD8E049
:1000C000DEBFCDBF11E0A0E0B1E0E6E4F7E002C0A2
:1000D00005900D92AC31B107D9F721E0ACE1B1E068
:1000E00001C01D92A734B207E1F70E94E9010C9408
:1000F000A1030C94000090E0FC01EC55FF4F24910B
:1001000080579F4FFC018491882399F090E0880FDD
:10011000991FFC01EA57FF4FA591B491FC01E458E7
:10012000FF4F859194918FB7F894EC91E22BEC936B
:100130008FBF089590E0FC01E859FF4F2491FC0126
:10014000EC55FF4F3491FC01E057FF4FE491EE2353
:10015000C9F0222339F0233001F1A8F4213019F13C
:10016000223029F1F0E0EE0FFF1FE458FF4FA59178
:10017000B4918FB7F894EC91611126C030953E236D
:100180003C938FBF08952730A9F02830C9F0243060
:1001900049F7809180008F7D03C0809180008F7728
:1001A00080938000DFCF84B58F7784BDDBCF84B5AB
:1001B0008F7DFBCF8091B0008F778093B000D2CF3E
:1001C0008091B0008F7DF9CF3E2BDACF3FB7F89406
:1001D00080911D0190911E01A0911F01B0912001FD
:1001E00026B5A89B05C02F3F19F00196A11DB11D92
:1001F0003FBFBA2FA92F982F8827BC01CD01620FCE
:10020000711D811D911D42E0660F771F881F991F88
:100210004A95D1F708958F929F92AF92BF92CF9255
:10022000DF92EF92FF920E94E6004B015C0188ECA6
:10023000C82ED12CE12CF12C0E94E6006819790916
:100240008A099B09683E734081059105A8F321E066
:10025000C21AD108E108F10888EE880E83E0981EE2
:10026000A11CB11CC114D104E104F10429F7FF90D1
:10027000EF90DF90CF90BF90AF909F908F900895B8
:1002800061E08FE00E949A0060E08FE00C949A0099
:10029000CF93C82F682F617080E10E949A006C2F65
:1002A000627081E10E949A006C2F647082E10E946A
:1002B0009A006C2F687083E1CF910C949A000F9391
:1002C0001F93CF93DF93EC01682F617080E00E9451
:1002D0009A006C2F627081E00E949A006C2F64700B
:1002E00082E00E949A006C2F687083E00E949A005E
:1002F0006C2F607184E00E949A006C2F607285E020
:100300000E949A006C2F607486E00E949A006C2F05
:10031000607887E00E949A008E01D7FF02C00150EA
:100320001F4F612F617088E00E949A00612F6270F8
:1003300089E0DF91CF911F910F910C949A001F9249
:100340000F920FB60F9211242F933F938F939F9389
:10035000AF93BF938091210190912201A09123013D
:10036000B091240130911C0123E0230F2D3758F563
:100370000196A11DB11D20931C0180932101909332
:100380002201A0932301B093240180911D0190913B
:100390001E01A0911F01B09120010196A11DB11D68
:1003A00080931D0190931E01A0931F01B093200123
:1003B000BF91AF919F918F913F912F910F900FBE61
:1003C0000F901F90189526E8230F0296A11DB11DCE
:1003D000D2CF789484B5826084BD84B5816084BDB9
:1003E00085B5826085BD85B5816085BD80916E00D3
:1003F000816080936E001092810080918100826004
:100400008093810080918100816080938100809140
:1004100080008160809380008091B100846080932F
:10042000B1008091B00081608093B00080917A002B
:10043000846080937A0080917A00826080937A0051
:1004400080917A00816080937A0080917A00806840
:1004500080937A001092C100C0E08C2F0E947B0034
:10046000CF5FC630D1F786E00E947B0087E00E9414
:100470007B0088E00E947B0089E00E947B0080E195
:100480000E947B0081E10E947B0082E10E947B0050
:1004900083E10E947B005AE0E52EF12CC0E0D2E01F
:1004A000CE010E945F0110E000E0C8010E944801F7
:1004B0000E9440010F5F1F4F0A301105B1F70E94E3
:1004C0000B01D7FD2196D595C79521E0E21AF108D9
:1004D00039F790E080E00E945F01D0E0C0E0CE01FB
:1004E0000E9448010E9440012196CA30D105B9F707
:1004F0000AE010E0C0912501D0912601CE010E94B2
:1005000048018FEF93E00E945F010E9440010E942A
:100510000B01CE010E94480190E080E00E945F0143
:100520000E9440012196D0932601C09325010150DD
:10053000110901F790E080E00E945F01109226010E
:10054000109225010AE010E090E0892E90E0992EAB
:10055000C0E0D2E0EE24EA94FE2CCC24CA9433E02E
:10056000D32E8FB7F89440902101509022016090D3
:100570002301709024018FBF4092430150924401A7
:10058000609245017092460180913F019091400137
:10059000A0914101B091420184159505A605B705CA
:1005A00019F1A0902501B0902601F501EE0FFF1F73
:1005B000E95DFE4F808191810E945F01C5010E942B
:1005C00048010E944001C5010196B8010E947903CB
:1005D000909326018093250140923F015092400163
:1005E000609241017092420180910601882309F4D2
:1005F0006BC080913B0190913C01A0913D01B09175
:100600003E01A3019201281B390B4A0B5B0BDA0157
:10061000C90184369105A105B10508F455C0409281
:100620003B0150923C0160923D0170923E018091ED
:10063000040190910501019641F410920501109278
:100640000401D0920301C092020140910201509135
:1006500003012091000130910101B90137FF02C06F
:100660006F5F7F4F7595679542175307A4F180918F
:10067000040190910501FC01EE0FFF1FE95DFE4FA3
:10068000A081B181A20FB31FB183A083421B530B82
:1006900050930301409302017093010160930001A4
:1006A000452B91F4019690930501809304018A30C3
:1006B00091059CF010920601F0920501E092040170
:1006C000D0930101C09300018114910409F449CF32
:1006D0000E94000046CF9B01C0CF880F991FFC01EC
:1006E000E95FFE4F80819181909303018093020125
:1006F000E7CF97FB072E16F4009407D077FD09D0BB
:100700000E948D0307FC05D03EF4909581959F4F84
:100710000895709561957F4F0895AA1BBB1B51E109
:1007200007C0AA1FBB1FA617B70710F0A61BB70B61
:10073000881F991F5A95A9F780959095BC01CD0106
:060740000895F894FFCFBC
:100746000002FFFFFFFF01FF03FF03FF03FF03FF9D
:0C07560003FF03FF03FF03FF03FF03008A
:107E0000112484B714BE81FFF0D085E080938100F7
:107E100082E08093C00088E18093C10086E0809377
:107E2000C20080E18093C4008EE0C9D0259A86E02C
:107E300020E33CEF91E0309385002093840096BBD3
:107E4000B09BFECF1D9AA8958150A9F7CC24DD24C4
:107E500088248394B5E0AB2EA1E19A2EF3E0BF2EE7
:107E6000A2D0813461F49FD0082FAFD0023811F036
:107E7000013811F484E001C083E08DD089C08234E0
:107E800011F484E103C0853419F485E0A6D080C0E4
:107E9000853579F488D0E82EFF2485D0082F10E0AE
:107EA000102F00270E291F29000F111F8ED06801E7
:107EB0006FC0863521F484E090D080E0DECF843638
:107EC00009F040C070D06FD0082F6DD080E0C81688
:107ED00080E7D80618F4F601B7BEE895C0E0D1E017
:107EE00062D089930C17E1F7F0E0CF16F0E7DF06D8
:107EF00018F0F601B7BEE89568D007B600FCFDCFD4
:107F0000A601A0E0B1E02C9130E011968C91119780
:107F100090E0982F8827822B932B1296FA010C0160
:107F200087BEE89511244E5F5F4FF1E0A038BF0790
:107F300051F7F601A7BEE89507B600FCFDCF97BE46
:107F4000E89526C08437B1F42ED02DD0F82E2BD052
:107F50003CD0F601EF2C8F010F5F1F4F84911BD097
:107F6000EA94F801C1F70894C11CD11CFA94CF0C13
:107F7000D11C0EC0853739F428D08EE10CD085E9AC
:107F80000AD08FE07ACF813511F488E018D01DD067
:107F900080E101D065CF982F8091C00085FFFCCF94
:107FA0009093C60008958091C00087FFFCCF809118
:107FB000C00084FD01C0A8958091C6000895E0E648
:107FC000F0E098E1908380830895EDDF803219F02E
:107FD00088E0F5DFFFCF84E1DECF1F93182FE3DFCA
:107FE0001150E9F7F2DF1F91089580E0E8DFEE27F6
:047FF000FF270994CA
:027FFE00040479
:0400000300007E007B
:00000001FF
