:100000000C945E000C9486000C9486000C94860080
:100010000C9486000C9486000C9486000C94860048
:100020000C9486000C9486000C9486000C94860038
:100030000C9486000C9486000C9486000C94860028
:100040000C9401020C9486000C9486000C9486009B
:100050000C9486000C9486000C9486000C94860008
:100060000C9486000C948600000000080002010039
:100070000003040700000000000000000000000072
:10008000250028002B0000000000240027002A0083
:10009000040404040404040402020202020203032E
:1000A0000303030301020408102040800102040836
:1000B0001020010204081020E805F40511241FBED9
:1000C000CFEFD8E0DEBFCDBF22E0ACE0B2E001C0B0
:1000D0001D92A635B207E1F712E0A0E0B1E0E2ED33
:1000E000F0E102C005900D92AC30B107D9F710E0F5
:1000F000CDE5D0E004C02197FE010E946406CC3516
:10010000D107C9F70E9494020C945C080C9400007B
:1001100090E0FC01EC55FF4F249180579F4FFC016C
:100120008491882399F090E0880F991FFC01EA5789
:10013000FF4FA591B491FC01E458FF4F8591949134
:100140008FB7F894EC91E22BEC938FBF089580E485
:1001500080937C0080917A00806480937A00809103
:100160007A0086FDFCCF8091780090917900089507
:10017000FC01248135816217730720F4808191810D
:10018000009729F41092110281E192E00895860F00
:10019000971F089590E0FC01E859FF4F2491FC015E
:1001A000EC55FF4F3491FC01E057FF4FE491EE23F3
:1001B000C9F0222339F0233001F1A8F4213019F1DC
:1001C000223029F1F0E0EE0FFF1FE458FF4FA59118
:1001D000B4918FB7F894EC91611126C030953E230D
:1001E0003C938FBF08952730A9F02830C9F0243000
:1001F00049F7809180008F7D03C0809180008F77C8
:1002000080938000DFCF84B58F7784BDDBCF84B54A
:100210008F7DFBCF8091B0008F778093B000D2CFDD
:100220008091B0008F7DF9CF3E2BDACF3FB7F894A5
:1002300080910D0290910E02A0910F02B0911002D8
:1002400026B5A89B05C02F3F19F00196A11DB11D31
:100250003FBFBA2FA92F982F8827BC01CD01620F6D
:10026000711D811D911D42E0660F771F881F991F28
:100270004A95D1F708958F929F92AF92BF92CF92F5
:10028000DF92EF92FF920E9416014B015C0188EC15
:10029000C82ED12CE12CF12C0E9416016819790985
:1002A0008A099B09683E734081059105A8F321E006
:1002B000C21AD108E108F10888EE880E83E0981E82
:1002C000A11CB11CC114D104E104F10429F7FF9071
:1002D000EF90DF90CF90BF90AF909F908F90089558
:1002E00061E08FE00E94CA0060E08FE00C94CA00D9
:1002F000CF93C82F682F617080E10E94CA006C2FD5
:10030000627081E10E94CA006C2F647082E10E94D9
:10031000CA006C2F687083E1CF910C94CA000F93D0
:100320001F93CF93DF93EC01682F617080E00E94F0
:10033000CA006C2F627081E00E94CA006C2F64704A
:1003400082E00E94CA006C2F687083E00E94CA009D
:100350006C2F607184E00E94CA006C2F607285E08F
:100360000E94CA006C2F607486E00E94CA006C2F45
:10037000607887E00E94CA008E01D7FF02C001505A
:100380001F4F612F617088E00E94CA00612F627068
:1003900089E0DF91CF911F910F910C94CA00CF9308
:1003A000DF9390E080E00E948F01D0E0C0E0CE01BA
:1003B0000E9478010E9470012196CA30D105B9F7D8
:1003C000DF91CF910895CF93DF93EC01EEE2F2E05D
:1003D0001192119282E0E234F807D1F70E94CF0126
:1003E000D0934302C09342028FEF9FEF9093F901A5
:1003F0008093F80110922D0210922C02DF91CF9180
:1004000008951F920F920FB60F9211242F933F93CE
:100410008F939F93AF93BF93809112029091130299
:10042000A0911402B091150230910C0223E0230F29
:100430002D3758F50196A11DB11D20930C02809314
:10044000120290931302A0931402B09315028091AC
:100450000D0290910E02A0910F02B0911002019630
:10046000A11DB11D80930D0290930E02A0930F0267
:10047000B0931002BF91AF919F918F913F912F91B7
:100480000F900FBE0F901F90189526E8230F02962D
:10049000A11DB11DD2CFEF92FF920F931F93CF9367
:1004A000DF93EC017B01198218821B821A821D8264
:1004B0001C82FB0101900020E9F731978F01061B98
:1004C000170BB8016F5F7F4F90E080E00E948F07AD
:1004D0000097B9F0998388831B830A832C813D811F
:1004E000232B11F4FC0110821D830C83B70188813A
:1004F0009981DF91CF911F910F91FF90EF900C9414
:10050000550888819981009711F00E940607198289
:1005100018821D821C821B821A82DF91CF911F914B
:100520000F91FF90EF900895789484B5826084BD18
:1005300084B5816084BD85B5826085BD85B58160E7
:1005400085BD80916E00816080936E001092810065
:100550008091810082608093810080918100816020
:1005600080938100809180008160809380008091E1
:10057000B10084608093B1008091B000816080936D
:10058000B00080917A00846080937A0080917A0034
:10059000826080937A0080917A00816080937A00F3
:1005A00080917A00806880937A001092C100C0E048
:1005B0008C2F0E948800CF5FCA30D1F78FE00E9455
:1005C000880080E10E94880081E10E94880082E129
:1005D0000E94880083E10E9488003AE0E32EF12C1B
:1005E000C0E0D2E0CE010E948F0110E000E0C8011F
:1005F0000E9478010E9470010F5F1F4F0A301105A1
:10060000B1F70E943B01D7FD2196D595C79521E012
:10061000E21AF10839F70E94CF010AE010E0C09118
:100620002C02D0912D02CE010E9478018FEF93E031
:100630000E948F010E9470010E943B01CE010E9426
:10064000780190E080E00E948F010E947001219665
:10065000D0932D02C0932C020150110901F790E0B4
:1006600080E00E948F0110922D0210922C0212E461
:10067000812E12E0912E0AE0E02EF12C80E0282E4F
:1006800080E0382EC1E000E012E0CC24CA94DC2CDB
:100690008FB7F894409012025090130260901402A9
:1006A000709015028FBF40924E0250924F0260929E
:1006B0005002709251020E94A700892B09F473C264
:1006C00080914D02811115C10E94A7002091FA016D
:1006D000893532E0930709F488C05CF58F3F51E01B
:1006E000950709F496C0ACF4863E914009F49AC08F
:1006F000C0934D02D091FA018091F101882309F451
:100700009AC0D13309F0A1C01092F101C093180230
:100710009CC08A3132E0930709F472C0883392405A
:1007200039F7263329F38CE391E00E94E30186E355
:100730002CC08A3D52E0950709F441C094F48F37EC
:10074000F2E09F0709F446C0893A924089F62333C4
:1007500079F288E791E00E94E30123E32093FA0114
:1007600028C0823143E09407B1F08435934009F00A
:10077000BFCF203309F4BCCF8091F301882341F02F
:100780008CED91E00E94E30180E38093FA0111C0B7
:1007900088EC91E0F7CF213309F4AACF8091F301DF
:1007A000882351F084EB91E00E94E301E1E3E093C0
:1007B000FA01C09348029CCF80EA91E0F5CF223342
:1007C00009F496CF8CE891E00E94E301F2E3F09304
:1007D000FA01EFCF243309F48BCF84E691E00E9435
:1007E000E30134E33093FA01E4CF253309F480CFF9
:1007F00080E591E00E94E30145E34093FA01D9CFFF
:10080000273309F475CF88E291E00E94E30187E382
:10081000BCCF283309F46CCF84E191E00E94E3015E
:1008200088E3B3CF293309F463CF80E091E00E94DD
:10083000E30189E3AACF80911802882339F1D233EA
:1008400001F5C09317021092180280912B028111BA
:1008500050C08091F301882309F445C18091F201D1
:100860008823A1F170E060E085E292E00E94B80088
:10087000FC018081D8133DC01092F201C093240284
:1008800038C0D13311F3C093F101DFCF809117024B
:10089000882351F0D13329F4C09316021092170225
:1008A000D4CFC093F101FACF80911602882369F268
:1008B000D23349F4C0932B02C093F101C093F201EB
:1008C000C093F001C2CFD133F1F620CF8091240242
:1008D000882309F4CFC061E070E085E292E00E94D5
:1008E000B800FC018081D813B7C0C09323021092D6
:1008F00024028091490290914A02A0914B02B0914A
:100900004C0284159505A605B70519F1A0902C0297
:10091000B0902D02F501EE0FFF1FE25DFD4F8081CB
:1009200091810E948F01C5010E9478010E9470018F
:10093000C5010196B7010E943C0690932D02809359
:100940002C024092490250924A0260924B027092ED
:100950004C0280914802882309F477C080914402B8
:1009600090914502A0914602B0914702A3019201E5
:10097000281B390B4A0B5B0BDA01C9018436910540
:10098000A105B10508F461C04092440250924502AD
:1009900060924602709247028091F8019091F901AD
:1009A000019691F41092F9011092F801E09142023F
:1009B000F0914302808191819093F7018093F60139
:1009C0001093F5010093F4014091F6015091F70165
:1009D0002091F4013091F501B90137FF02C06F5F3A
:1009E0007F4F75956795421753070CF4DFC08091D0
:1009F000F8019091F901FC01EE0FFF1FE25DFD4F40
:100A0000A081B181A20FB31FB183A083421B530BFE
:100A10005093F7014093F6017093F5016093F40150
:100A2000452B99F401969093F9018093F8018A304F
:100A300091050CF4BDC010924802D092F901C09209
:100A4000F8011093F5010093F4012114310409F425
:100A50001FCE0E9400001CCE70E060E085E292E0B4
:100A60000E94B800FC018081D81709F407CFC09319
:100A7000F2013FCF80912302882379F062E070E099
:100A800085E292E00E94B800FC018081D813E4CF97
:100A9000C0932202109223022CCF8091220288233D
:100AA00009F427CF63E070E085E292E00E94B8008D
:100AB000FC018081D813D0CF1092F3010E94CF01A6
:100AC000EEE2F2E0119211928E169F06D9F7109283
:100AD0004802F0E2F093FA01C093F101C093F201F1
:100AE000C093F00106CF8091F001882379F070E087
:100AF00060E08CE192E00E94B800FC018081D81394
:100B0000F8CE1092F001C0931B02F3CE80911B022D
:100B10008823D1F061E070E08CE192E00E94B8009F
:100B2000FC018081D81305C0C0931A0210921B02E9
:100B3000E0CE70E060E08CE192E00E94B800FC0141
:100B40008081D813CDCFDFCF80911A02882379F02E
:100B500062E070E08CE192E00E94B800FC018081CC
:100B6000D813E7CFC093190210921A02C2CE809117
:100B70001902882309F4BDCE63E070E08CE192E0B5
:100B80000E94B800FC018081D813D3CFC093F30139
:100B90000E94CF01EEE2F2E01192119222E0E234E3
:100BA000F207D1F794CF10924D02A3CE9B0114CF40
:100BB000880F991F2091420230914302820F931FA8
:100BC000FC01808191819093F7018093F60139CFE8
:100BD00061E072E085E292E00E944B0266E072E022
:100BE0008CE192E00C944B0280911C0290911D02CA
:100BF000009711F00E94060780912502909126022D
:100C0000009711F00C94060708952F923F924F928F
:100C10005F926F927F928F929F92AF92BF92CF928C
:100C2000DF92EF92FF920F931F93CF93DF93CDB795
:100C3000DEB7CA1BDB0B0FB6F894DEBF0FBECDBF0D
:100C400009942A88398848885F846E847D848C84DE
:100C50009B84AA84B984C884DF80EE80FD800C81E7
:100C60001B81AA81B981CE0FD11D0FB6F894DEBFCA
:100C70000FBECDBFED01089597FB072E16F400942B
:100C800007D077FD09D00E94500607FC05D03EF43E
:100C9000909581959F4F0895709561957F4F089528
:100CA000AA1BBB1B51E107C0AA1FBB1FA617B70792
:100CB00010F0A61BB70B881F991F5A95A9F78095AE
:100CC0009095BC01CD010895EE0FFF1F0590F491A2
:100CD000E02D09940F931F93CF93DF9382309105FA
:100CE00010F482E090E0E0915402F091550230E07F
:100CF00020E0B0E0A0E0309799F42115310509F427
:100D00004AC0281B390B24303105D8F58A819B81D4
:100D10006115710589F1FB0193838283FE0111C086
:100D2000408151810281138148175907E0F048172B
:100D3000590799F4109761F012960C931297139635
:100D40001C933296CF01DF91CF911F910F9108959F
:100D50000093540210935502F4CF2115310551F040
:100D60004217530738F0A901DB019A01BD01DF01E9
:100D7000F801C1CFEF01F9CF90935502809354024F
:100D8000CDCFFE01E20FF31F8193919322503109E1
:100D900039832883D7CF2091520230915302232BDD
:100DA00041F42091FD013091FE01309353022093D4
:100DB00052022091FB013091FC012115310541F4D3
:100DC0002DB73EB74091FF0150910002241B350B17
:100DD000E0915202F0915302E217F307A0F42E1BA8
:100DE0003F0B2817390778F0AC014E5F5F4F24178F
:100DF000350748F04E0F5F1F509353024093520245
:100E0000819391939FCFF0E0E0E09CCFCF93DF936D
:100E10000097E9F0FC01329713821282A0915402EC
:100E2000B0915502ED0130E020E01097A1F420814F
:100E30003181820F931F2091520230915302281763
:100E4000390709F061C0F0935302E0935202DF9139
:100E5000CF910895EA01CE17DF07E8F54A815B815B
:100E60009E0141155105B1F7E901FB83EA834991E0
:100E70005991C40FD51FEC17FD0761F48081918152
:100E80000296840F951FE90199838883828193815B
:100E90009B838A83F0E0E0E012968D919C911397FA
:100EA0000097B9F52D913C911197CD010296820FD3
:100EB000931F20915202309153022817390739F6B7
:100EC000309751F51092550210925402B09353028C
:100ED000A0935202BCCFD383C28340815181840F3F
:100EE000951FC817D90761F44E5F5F4F88819981BC
:100EF000480F591F518340838A819B81938382834A
:100F00002115310509F0B0CFF0935502E09354025A
:100F10009ECFFD01DC01C0CF13821282D7CFB0E09B
:100F2000A0E0E5E9F7E00C9407068C01009751F486
:100F3000CB010E946A068C01C801CDB7DEB7E0E1A3
:100F40000C942306FC01E60FF71F9C012250310987
:100F5000E217F30708F49DC0D901CD91DC911197F8
:100F6000C617D70798F0C530D10530F3CE010497E6
:100F70008617970708F3C61BD70B2297C193D19307
:100F80006D937C93CF010E940607D6CF5B01AC1A0C
:100F9000BD0A4C018C0E9D1EA0915402B0915502C9
:100FA000512C412CF12CE12C109731F580915202FB
:100FB000909153028815990509F05CC046165706B2
:100FC00008F058C08091FB019091FC01009741F41A
:100FD0008DB79EB74091FF0150910002841B950B85
:100FE000E817F90708F055C0F0935302E093520256
:100FF000F90171836083A0CF8D919C911197129616
:101000006C90129713967C901397A815B90559F513
:101010006C0142E0C40ED11CCA14DB0420F1AC0107
:101020004A195B09DA011296159780F06282738281
:1010300051834083D9016D937C93E114F10471F0E5
:10104000D7011396FC93EE93129776CF22968C0FCE
:101050009D1FF90191838083F301EFCFF093550237
:10106000E093540269CF4816590608F42C017D011B
:10107000D3019ACFCB010E946A067C01009749F008
:10108000AE01B8010E944C08C8010E940607870102
:1010900053CF10E000E050CFFB01DC0102C0019013
:1010A0000D9241505040D8F70895FB01DC010190AA
:1010B0000D920020E1F7089510E0CDE5D0E004C0E6
:1010C000FE010E9464062196CE35D107C9F7F89437
:0210D000FFCF50
:1010D2007800FC00CC00CC00FC007C000C00CC00B2
:1010E200FC0078007800FC00CC00CC007C00F8000A
:1010F200CC00CC00FC007800FC00CC000C001C00F2
:101102001800300030006000E000C0007800FC00F1
:10111200C000C000F800FC00CC00CC00FC0078004D
:10112200FC00FC00C000D800FC001C000C001C00ED
:10113200FC00F8001C003C006C00CC008C00FE019E
:10114200FE010C000C000C00FC00FE000E000C0066
:10115200F800F8000C000E00FE00FC00F800FC0194
:101162008C010C00180030006000C000FC01FC0182
:10117200FC0002010102CD024502010231024902D4
:101182000201FC00F800F80038003800380038008E
:1011920038003800FC00FC00FC000201010285025C
:1011A20049020102310249020201FC007800FC00FE
:1011B200CC00CC00CC00CC00CC00CC00FC007800F1
:1011C200010101010002FFFFFFFF20000056028023
:0C11D2000031323334003433323100007D
:107E0000112484B714BE81FFF0D085E080938100F7
:107E100082E08093C00088E18093C10086E0809377
:107E2000C20080E18093C4008EE0C9D0259A86E02C
:107E300020E33CEF91E0309385002093840096BBD3
:107E4000B09BFECF1D9AA8958150A9F7CC24DD24C4
:107E500088248394B5E0AB2EA1E19A2EF3E0BF2EE7
:107E6000A2D0813461F49FD0082FAFD0023811F036
:107E7000013811F484E001C083E08DD089C08234E0
:107E800011F484E103C0853419F485E0A6D080C0E4
:107E9000853579F488D0E82EFF2485D0082F10E0AE
:107EA000102F00270E291F29000F111F8ED06801E7
:107EB0006FC0863521F484E090D080E0DECF843638
:107EC00009F040C070D06FD0082F6DD080E0C81688
:107ED00080E7D80618F4F601B7BEE895C0E0D1E017
:107EE00062D089930C17E1F7F0E0CF16F0E7DF06D8
:107EF00018F0F601B7BEE89568D007B600FCFDCFD4
:107F0000A601A0E0B1E02C9130E011968C91119780
:107F100090E0982F8827822B932B1296FA010C0160
:107F200087BEE89511244E5F5F4FF1E0A038BF0790
:107F300051F7F601A7BEE89507B600FCFDCF97BE46
:107F4000E89526C08437B1F42ED02DD0F82E2BD052
:107F50003CD0F601EF2C8F010F5F1F4F84911BD097
:107F6000EA94F801C1F70894C11CD11CFA94CF0C13
:107F7000D11C0EC0853739F428D08EE10CD085E9AC
:107F80000AD08FE07ACF813511F488E018D01DD067
:107F900080E101D065CF982F8091C00085FFFCCF94
:107FA0009093C60008958091C00087FFFCCF809118
:107FB000C00084FD01C0A8958091C6000895E0E648
:107FC000F0E098E1908380830895EDDF803219F02E
:107FD00088E0F5DFFFCF84E1DECF1F93182FE3DFCA
:107FE0001150E9F7F2DF1F91089580E0E8DFEE27F6
:047FF000FF270994CA
:027FFE00040479
:0400000300007E007B
:00000001FF
