:100000000C945C000C9479000C9479000C947900A9
:100010000C9479000C9479000C9479000C9479007C
:100020000C9479000C9479000C9479000C9479006C
:100030000C9479000C9479000C9479000C9479005C
:100040000C94E2010C9479000C9479000C947900E2
:100050000C9479000C9479000C9479000C9479003C
:100060000C9479000C947900000000080002010053
:100070000003040700000000000000000000000072
:10008000250028002B0000000000240027002A0083
:10009000040404040404040402020202020203032E
:1000A0000303030301020408102040800102040836
:1000B000102001020408102011241FBECFEFD8E049
:1000C000DEBFCDBF11E0A0E0B1E0EEE8F8E002C095
:1000D00005900D92AE3CB107D9F721E0AEECB1E04E
:1000E00001C01D92AE3FB207E1F70E942C020C94B2
:1000F00045040C94000090E0FC01EC55FF4F249166
:1001000080579F4FFC018491882399F090E0880FDD
:10011000991FFC01EA57FF4FA591B491FC01E458E7
:10012000FF4F859194918FB7F894EC91E22BEC936B
:100130008FBF089580E480937C0080917A00806472
:1001400080937A0080917A0086FDFCCF80917800C0
:1001500090917900089590E0FC01E859FF4F2491B7
:10016000FC01EC55FF4F3491FC01E057FF4FE49147
:10017000EE23C9F0222339F0233001F1A8F4213015
:1001800019F1223029F1F0E0EE0FFF1FE458FF4F84
:10019000A591B4918FB7F894EC91611126C0309578
:1001A0003E233C938FBF08952730A9F02830C9F033
:1001B000243049F7809180008F7D03C080918000BA
:1001C0008F7780938000DFCF84B58F7784BDDBCFBE
:1001D00084B58F7DFBCF8091B0008F778093B00086
:1001E000D2CF8091B0008F7DF9CF3E2BDACF3FB7D1
:1001F000F8948091CF019091D001A091D101B0915C
:10020000D20126B5A89B05C02F3F19F00196A11D6C
:10021000B11D3FBFBA2FA92F982F8827BC01CD0150
:10022000620F711D811D911D42E0660F771F881FAF
:10023000991F4A95D1F708958F929F92AF92BF92DE
:10024000CF92DF92EF92FF920E94F7004B015C0188
:1002500088ECC82ED12CE12CF12C0E94F7006819F3
:1002600079098A099B09683E734081059105A8F3C5
:1002700021E0C21AD108E108F10888EE880E83E077
:10028000981EA11CB11CC114D104E104F10429F78A
:10029000FF90EF90DF90CF90BF90AF909F908F90A6
:1002A000089561E08FE00E94AB0060E08FE00C9465
:1002B000AB00CF93C82F682F617080E10E94AB0024
:1002C0006C2F627081E10E94AB006C2F647082E140
:1002D0000E94AB006C2F687083E1CF910C94AB004F
:1002E0000F931F93CF93DF93EC01682F617080E031
:1002F0000E94AB006C2F627081E00E94AB006C2FFB
:10030000647082E00E94AB006C2F687083E00E94F2
:10031000AB006C2F607184E00E94AB006C2F6072A8
:1003200085E00E94AB006C2F607486E00E94AB00F9
:100330006C2F607887E00E94AB008E01D7FF02C06F
:1003400001501F4F612F617088E00E94AB00612F48
:10035000627089E0DF91CF911F910F910C94AB00F7
:10036000CF93DF9390E080E00E947001D0E0C0E086
:10037000CE010E9459010E9451012196CA30D10537
:10038000B9F7DF91CF910895CF93DF93EC01E9EDB9
:10039000F1E01192119281E0ED3EF807D1F70E9451
:1003A000B001D093EE01C093ED018FEF9FEF9093DA
:1003B000CD018093CC011092D8011092D701DF912A
:1003C000CF9108951F920F920FB60F9211242F9381
:1003D0003F938F939F93AF93BF938091D30190915D
:1003E000D401A091D501B091D6013091CE0123E086
:1003F000230F2D3758F50196A11DB11D2093CE0175
:100400008093D3019093D401A093D501B093D601EA
:100410008091CF019091D001A091D101B091D201F2
:100420000196A11DB11D8093CF019093D001A0939F
:10043000D101B093D201BF91AF919F918F913F9124
:100440002F910F900FBE0F901F90189526E8230F45
:100450000296A11DB11DD2CF789484B5826084BD6F
:1004600084B5816084BD85B5826085BD85B58160B8
:1004700085BD80916E00816080936E001092810036
:1004800080918100826080938100809181008160F1
:1004900080938100809180008160809380008091B2
:1004A000B10084608093B1008091B000816080933E
:1004B000B00080917A00846080937A0080917A0005
:1004C000826080937A0080917A00816080937A00C4
:1004D00080917A00806880937A001092C100C0E019
:1004E0008C2F0E947B00CF5FCA30D1F78FE00E9433
:1004F0007B0080E10E947B0081E10E947B0082E121
:100500000E947B0083E10E947B004AE0E42EF12CF4
:10051000C0E0D2E0CE010E94700110E000E0C8010E
:100520000E9459010E9451010F5F1F4F0A301105AF
:10053000B1F70E941C01D7FD2196D595C79521E002
:10054000E21AF10839F70E94B0010AE010E0C09108
:10055000D701D091D801CE010E9459018FEF93E0CD
:100560000E9470010E9451010E941C01CE010E9454
:10057000590190E080E00E9470010E945101219693
:10058000D093D801C093D7010150110901F790E031
:1005900080E00E9470011092D8011092D7010AE009
:1005A00010E090E0892E90E0992EBB24B394C0E037
:1005B000D2E0EE24EA94FE2C8FB7F8944090D30159
:1005C0005090D4016090D5017090D6018FBF4092B9
:1005D000FA015092FB016092FC017092FD010E94B1
:1005E0009A00892B09F414C18091F901811118C076
:1005F0000E949A00893532E0930709F4FDC00CF09F
:10060000D5C08F3F51E0950709F4FCC00CF0C3C082
:10061000863E914009F4F9C0B092F901B092F4011C
:100620008091F5019091F601A091F701B091F80148
:1006300084159505A605B70519F1C090D701D0908E
:10064000D801F601EE0FFF1FE752FE4F8081918126
:100650000E947001C6010E9459010E945101C60109
:100660000196B8010E941D049093D8018093D70190
:100670004092F5015092F6016092F7017092F801F4
:100680008091F401882309F47FC08091F00190915A
:10069000F101A091F201B091F301A3019201281B95
:1006A000390B4A0B5B0BDA01C90184369105A105B0
:1006B000B10508F469C04092F0015092F1016092D6
:1006C000F2017092F3018091CC019091CD010196DD
:1006D00091F41092CD011092CC01E091ED01F091D6
:1006E000EE01808191819093CB018093CA01D093D8
:1006F000C901C093C8014091CA015091CB0120911A
:10070000C8013091C901B90137FF02C06F5F7F4F47
:1007100075956795421753070CF47DC08091CC0105
:100720009091CD01FC01EE0FFF1FE752FE4FA0811B
:10073000B181A20FB31FB183A083421B530B50930F
:10074000CB014093CA017093C9016093C801452B46
:1007500099F401969093CD018093CC018A30910554
:100760000CF45BC0B092EF01F092CD01E092CC01AD
:10077000D093C901C093C8018091EF01882321F073
:100780001092F4011092EF018114910409F414CF36
:100790000E94000011CF8A3122E0920781F1883354
:1007A000924009F039CF8CE391E01AC08A3D42E0D3
:1007B0009407E1F05CF48F37E2E09E07D1F0893ACC
:1007C000924009F029CF88E791E00AC0823123E006
:1007D000920749F08435934009F01ECF84EB91E0F5
:1007E0000E94C40119CF80EA91E0FACF8CE891E031
:1007F000F7CF84E691E0F4CF80E591E0F1CF88E295
:1008000091E0EECF84E191E0EBCF80E091E0E8CFA2
:100810001092F90105CF9B0176CF880F991F209187
:10082000ED013091EE01820F931FFC0180819181D7
:100830009093CB018093CA019BCF97FB072E16F4B0
:10084000009407D077FD09D00E94310407FC05D041
:100850003EF4909581959F4F0895709561957F4FD7
:100860000895AA1BBB1B51E107C0AA1FBB1FA617F7
:10087000B70710F0A61BB70B881F991F5A95A9F749
:0E08800080959095BC01CD010895F894FFCFAE
:10088E007800FC00CC00CC00FC007C000C00CC00FE
:10089E00FC0078007800FC00CC00CC007C00F80056
:1008AE00CC00CC00FC007800FC00CC000C001C003E
:1008BE001800300030006000E000C0007800FC003E
:1008CE00C000C000F800FC00CC00CC00FC0078009A
:1008DE00FC00FC00C000D800FC001C000C001C003A
:1008EE00FC00F8001C003C006C00CC008C00FE01EB
:1008FE00FE010C000C000C00FC00FE000E000C00B3
:10090E00F800F8000C000E00FE00FC00F800FC01E0
:10091E008C010C00180030006000C000FC01FC01CE
:10092E00F800F80038003800380038003800380079
:10093E00FC00FC007800FC00CC00CC00CC00CC000D
:0E094E00CC00CC00FC0078000002FFFFFFFF91
:107E0000112484B714BE81FFF0D085E080938100F7
:107E100082E08093C00088E18093C10086E0809377
:107E2000C20080E18093C4008EE0C9D0259A86E02C
:107E300020E33CEF91E0309385002093840096BBD3
:107E4000B09BFECF1D9AA8958150A9F7CC24DD24C4
:107E500088248394B5E0AB2EA1E19A2EF3E0BF2EE7
:107E6000A2D0813461F49FD0082FAFD0023811F036
:107E7000013811F484E001C083E08DD089C08234E0
:107E800011F484E103C0853419F485E0A6D080C0E4
:107E9000853579F488D0E82EFF2485D0082F10E0AE
:107EA000102F00270E291F29000F111F8ED06801E7
:107EB0006FC0863521F484E090D080E0DECF843638
:107EC00009F040C070D06FD0082F6DD080E0C81688
:107ED00080E7D80618F4F601B7BEE895C0E0D1E017
:107EE00062D089930C17E1F7F0E0CF16F0E7DF06D8
:107EF00018F0F601B7BEE89568D007B600FCFDCFD4
:107F0000A601A0E0B1E02C9130E011968C91119780
:107F100090E0982F8827822B932B1296FA010C0160
:107F200087BEE89511244E5F5F4FF1E0A038BF0790
:107F300051F7F601A7BEE89507B600FCFDCF97BE46
:107F4000E89526C08437B1F42ED02DD0F82E2BD052
:107F50003CD0F601EF2C8F010F5F1F4F84911BD097
:107F6000EA94F801C1F70894C11CD11CFA94CF0C13
:107F7000D11C0EC0853739F428D08EE10CD085E9AC
:107F80000AD08FE07ACF813511F488E018D01DD067
:107F900080E101D065CF982F8091C00085FFFCCF94
:107FA0009093C60008958091C00087FFFCCF809118
:107FB000C00084FD01C0A8958091C6000895E0E648
:107FC000F0E098E1908380830895EDDF803219F02E
:107FD00088E0F5DFFFCF84E1DECF1F93182FE3DFCA
:107FE0001150E9F7F2DF1F91089580E0E8DFEE27F6
:047FF000FF270994CA
:027FFE00040479
:0400000300007E007B
:00000001FF
